{
  "_format": "hh-sol-artifact-1",
  "contractName": "MiniDexPairUpgradeable",
  "sourceName": "contracts/MiniDexPairUpgradeable.sol",
  "abi": [
    {
      "inputs": [
        {
          "internalType": "address",
          "name": "target",
          "type": "address"
        }
      ],
      "name": "AddressEmptyCode",
      "type": "error"
    },
    {
      "inputs": [
        {
          "internalType": "address",
          "name": "implementation",
          "type": "address"
        }
      ],
      "name": "ERC1967InvalidImplementation",
      "type": "error"
    },
    {
      "inputs": [],
      "name": "ERC1967NonPayable",
      "type": "error"
    },
    {
      "inputs": [],
      "name": "FailedCall",
      "type": "error"
    },
    {
      "inputs": [],
      "name": "InvalidInitialization",
      "type": "error"
    },
    {
      "inputs": [],
      "name": "NotInitializing",
      "type": "error"
    },
    {
      "inputs": [
        {
          "internalType": "address",
          "name": "owner",
          "type": "address"
        }
      ],
      "name": "OwnableInvalidOwner",
      "type": "error"
    },
    {
      "inputs": [
        {
          "internalType": "address",
          "name": "account",
          "type": "address"
        }
      ],
      "name": "OwnableUnauthorizedAccount",
      "type": "error"
    },
    {
      "inputs": [],
      "name": "ReentrancyGuardReentrantCall",
      "type": "error"
    },
    {
      "inputs": [],
      "name": "UUPSUnauthorizedCallContext",
      "type": "error"
    },
    {
      "inputs": [
        {
          "internalType": "bytes32",
          "name": "slot",
          "type": "bytes32"
        }
      ],
      "name": "UUPSUnsupportedProxiableUUID",
      "type": "error"
    },
    {
      "anonymous": false,
      "inputs": [
        {
          "indexed": false,
          "internalType": "uint64",
          "name": "version",
          "type": "uint64"
        }
      ],
      "name": "Initialized",
      "type": "event"
    },
    {
      "anonymous": false,
      "inputs": [
        {
          "indexed": true,
          "internalType": "address",
          "name": "provider",
          "type": "address"
        },
        {
          "indexed": false,
          "internalType": "uint256",
          "name": "amountA",
          "type": "uint256"
        },
        {
          "indexed": false,
          "internalType": "uint256",
          "name": "amountB",
          "type": "uint256"
        },
        {
          "indexed": false,
          "internalType": "uint256",
          "name": "lpMinted",
          "type": "uint256"
        }
      ],
      "name": "LiquidityAdded",
      "type": "event"
    },
    {
      "anonymous": false,
      "inputs": [
        {
          "indexed": true,
          "internalType": "address",
          "name": "provider",
          "type": "address"
        },
        {
          "indexed": false,
          "internalType": "uint256",
          "name": "amountA",
          "type": "uint256"
        },
        {
          "indexed": false,
          "internalType": "uint256",
          "name": "amountB",
          "type": "uint256"
        },
        {
          "indexed": false,
          "internalType": "uint256",
          "name": "lpBurned",
          "type": "uint256"
        }
      ],
      "name": "LiquidityRemoved",
      "type": "event"
    },
    {
      "anonymous": false,
      "inputs": [
        {
          "indexed": true,
          "internalType": "address",
          "name": "previousOwner",
          "type": "address"
        },
        {
          "indexed": true,
          "internalType": "address",
          "name": "newOwner",
          "type": "address"
        }
      ],
      "name": "OwnershipTransferred",
      "type": "event"
    },
    {
      "anonymous": false,
      "inputs": [
        {
          "indexed": false,
          "internalType": "uint256",
          "name": "reserveA",
          "type": "uint256"
        },
        {
          "indexed": false,
          "internalType": "uint256",
          "name": "reserveB",
          "type": "uint256"
        }
      ],
      "name": "ReserveSynced",
      "type": "event"
    },
    {
      "anonymous": false,
      "inputs": [
        {
          "indexed": true,
          "internalType": "address",
          "name": "user",
          "type": "address"
        },
        {
          "indexed": false,
          "internalType": "uint256",
          "name": "rewardAmount",
          "type": "uint256"
        }
      ],
      "name": "RewardClaimed",
      "type": "event"
    },
    {
      "anonymous": false,
      "inputs": [
        {
          "indexed": true,
          "internalType": "address",
          "name": "user",
          "type": "address"
        },
        {
          "indexed": true,
          "internalType": "address",
          "name": "inputToken",
          "type": "address"
        },
        {
          "indexed": true,
          "internalType": "address",
          "name": "outputToken",
          "type": "address"
        },
        {
          "indexed": false,
          "internalType": "uint256",
          "name": "inputAmount",
          "type": "uint256"
        },
        {
          "indexed": false,
          "internalType": "uint256",
          "name": "outputAmount",
          "type": "uint256"
        }
      ],
      "name": "Swapped",
      "type": "event"
    },
    {
      "anonymous": false,
      "inputs": [
        {
          "indexed": true,
          "internalType": "address",
          "name": "implementation",
          "type": "address"
        }
      ],
      "name": "Upgraded",
      "type": "event"
    },
    {
      "inputs": [],
      "name": "FEE_RATE",
      "outputs": [
        {
          "internalType": "uint256",
          "name": "",
          "type": "uint256"
        }
      ],
      "stateMutability": "view",
      "type": "function"
    },
    {
      "inputs": [
        {
          "internalType": "address",
          "name": "",
          "type": "address"
        }
      ],
      "name": "LPbalances",
      "outputs": [
        {
          "internalType": "uint256",
          "name": "",
          "type": "uint256"
        }
      ],
      "stateMutability": "view",
      "type": "function"
    },
    {
      "inputs": [],
      "name": "UPGRADE_INTERFACE_VERSION",
      "outputs": [
        {
          "internalType": "string",
          "name": "",
          "type": "string"
        }
      ],
      "stateMutability": "view",
      "type": "function"
    },
    {
      "inputs": [
        {
          "internalType": "uint256",
          "name": "amountA",
          "type": "uint256"
        },
        {
          "internalType": "uint256",
          "name": "amountB",
          "type": "uint256"
        }
      ],
      "name": "addLiquidity",
      "outputs": [],
      "stateMutability": "nonpayable",
      "type": "function"
    },
    {
      "inputs": [
        {
          "internalType": "uint256",
          "name": "amountB",
          "type": "uint256"
        }
      ],
      "name": "claimAndReinvest",
      "outputs": [],
      "stateMutability": "nonpayable",
      "type": "function"
    },
    {
      "inputs": [],
      "name": "claimRewards",
      "outputs": [],
      "stateMutability": "nonpayable",
      "type": "function"
    },
    {
      "inputs": [
        {
          "internalType": "address",
          "name": "",
          "type": "address"
        }
      ],
      "name": "claimableRewards",
      "outputs": [
        {
          "internalType": "uint256",
          "name": "",
          "type": "uint256"
        }
      ],
      "stateMutability": "view",
      "type": "function"
    },
    {
      "inputs": [],
      "name": "feeRecipient",
      "outputs": [
        {
          "internalType": "address",
          "name": "",
          "type": "address"
        }
      ],
      "stateMutability": "view",
      "type": "function"
    },
    {
      "inputs": [],
      "name": "get24hVolume",
      "outputs": [
        {
          "internalType": "uint256",
          "name": "",
          "type": "uint256"
        }
      ],
      "stateMutability": "view",
      "type": "function"
    },
    {
      "inputs": [],
      "name": "getAPR",
      "outputs": [
        {
          "internalType": "uint256",
          "name": "",
          "type": "uint256"
        }
      ],
      "stateMutability": "view",
      "type": "function"
    },
    {
      "inputs": [
        {
          "internalType": "uint256",
          "name": "inputAmount",
          "type": "uint256"
        },
        {
          "internalType": "address",
          "name": "inputToken",
          "type": "address"
        }
      ],
      "name": "getAmountOut",
      "outputs": [
        {
          "internalType": "uint256",
          "name": "outputAmount",
          "type": "uint256"
        }
      ],
      "stateMutability": "view",
      "type": "function"
    },
    {
      "inputs": [
        {
          "internalType": "address",
          "name": "user",
          "type": "address"
        }
      ],
      "name": "getClaimableRewards",
      "outputs": [
        {
          "internalType": "uint256",
          "name": "",
          "type": "uint256"
        }
      ],
      "stateMutability": "view",
      "type": "function"
    },
    {
      "inputs": [
        {
          "internalType": "address",
          "name": "user",
          "type": "address"
        }
      ],
      "name": "getLPBalance",
      "outputs": [
        {
          "internalType": "uint256",
          "name": "",
          "type": "uint256"
        }
      ],
      "stateMutability": "view",
      "type": "function"
    },
    {
      "inputs": [
        {
          "internalType": "address",
          "name": "user",
          "type": "address"
        }
      ],
      "name": "getReputationScore",
      "outputs": [
        {
          "internalType": "uint256",
          "name": "",
          "type": "uint256"
        }
      ],
      "stateMutability": "view",
      "type": "function"
    },
    {
      "inputs": [],
      "name": "getReserves",
      "outputs": [
        {
          "internalType": "uint256",
          "name": "",
          "type": "uint256"
        },
        {
          "internalType": "uint256",
          "name": "",
          "type": "uint256"
        }
      ],
      "stateMutability": "view",
      "type": "function"
    },
    {
      "inputs": [],
      "name": "getTVL",
      "outputs": [
        {
          "internalType": "uint256",
          "name": "",
          "type": "uint256"
        }
      ],
      "stateMutability": "view",
      "type": "function"
    },
    {
      "inputs": [
        {
          "internalType": "address",
          "name": "_tokenA",
          "type": "address"
        },
        {
          "internalType": "address",
          "name": "_tokenB",
          "type": "address"
        },
        {
          "internalType": "address",
          "name": "_owner",
          "type": "address"
        }
      ],
      "name": "initialize",
      "outputs": [],
      "stateMutability": "nonpayable",
      "type": "function"
    },
    {
      "inputs": [],
      "name": "lastVolumeTimestamp",
      "outputs": [
        {
          "internalType": "uint256",
          "name": "",
          "type": "uint256"
        }
      ],
      "stateMutability": "view",
      "type": "function"
    },
    {
      "inputs": [],
      "name": "owner",
      "outputs": [
        {
          "internalType": "address",
          "name": "",
          "type": "address"
        }
      ],
      "stateMutability": "view",
      "type": "function"
    },
    {
      "inputs": [],
      "name": "proxiableUUID",
      "outputs": [
        {
          "internalType": "bytes32",
          "name": "",
          "type": "bytes32"
        }
      ],
      "stateMutability": "view",
      "type": "function"
    },
    {
      "inputs": [
        {
          "internalType": "uint256",
          "name": "lpAmount",
          "type": "uint256"
        }
      ],
      "name": "removeLiquidity",
      "outputs": [],
      "stateMutability": "nonpayable",
      "type": "function"
    },
    {
      "inputs": [],
      "name": "renounceOwnership",
      "outputs": [],
      "stateMutability": "nonpayable",
      "type": "function"
    },
    {
      "inputs": [],
      "name": "reserveA",
      "outputs": [
        {
          "internalType": "uint256",
          "name": "",
          "type": "uint256"
        }
      ],
      "stateMutability": "view",
      "type": "function"
    },
    {
      "inputs": [],
      "name": "reserveB",
      "outputs": [
        {
          "internalType": "uint256",
          "name": "",
          "type": "uint256"
        }
      ],
      "stateMutability": "view",
      "type": "function"
    },
    {
      "inputs": [
        {
          "internalType": "uint256",
          "name": "inputAmount",
          "type": "uint256"
        },
        {
          "internalType": "address",
          "name": "inputToken",
          "type": "address"
        }
      ],
      "name": "swap",
      "outputs": [],
      "stateMutability": "nonpayable",
      "type": "function"
    },
    {
      "inputs": [],
      "name": "tokenA",
      "outputs": [
        {
          "internalType": "address",
          "name": "",
          "type": "address"
        }
      ],
      "stateMutability": "view",
      "type": "function"
    },
    {
      "inputs": [],
      "name": "tokenB",
      "outputs": [
        {
          "internalType": "address",
          "name": "",
          "type": "address"
        }
      ],
      "stateMutability": "view",
      "type": "function"
    },
    {
      "inputs": [
        {
          "internalType": "address",
          "name": "",
          "type": "address"
        }
      ],
      "name": "totalInput",
      "outputs": [
        {
          "internalType": "uint256",
          "name": "",
          "type": "uint256"
        }
      ],
      "stateMutability": "view",
      "type": "function"
    },
    {
      "inputs": [],
      "name": "totalLPSupply",
      "outputs": [
        {
          "internalType": "uint256",
          "name": "",
          "type": "uint256"
        }
      ],
      "stateMutability": "view",
      "type": "function"
    },
    {
      "inputs": [
        {
          "internalType": "address",
          "name": "",
          "type": "address"
        }
      ],
      "name": "totalOutput",
      "outputs": [
        {
          "internalType": "uint256",
          "name": "",
          "type": "uint256"
        }
      ],
      "stateMutability": "view",
      "type": "function"
    },
    {
      "inputs": [],
      "name": "totalRewardPool",
      "outputs": [
        {
          "internalType": "uint256",
          "name": "",
          "type": "uint256"
        }
      ],
      "stateMutability": "view",
      "type": "function"
    },
    {
      "inputs": [
        {
          "internalType": "address",
          "name": "newOwner",
          "type": "address"
        }
      ],
      "name": "transferOwnership",
      "outputs": [],
      "stateMutability": "nonpayable",
      "type": "function"
    },
    {
      "inputs": [
        {
          "internalType": "address",
          "name": "newImplementation",
          "type": "address"
        },
        {
          "internalType": "bytes",
          "name": "data",
          "type": "bytes"
        }
      ],
      "name": "upgradeToAndCall",
      "outputs": [],
      "stateMutability": "payable",
      "type": "function"
    },
    {
      "inputs": [
        {
          "internalType": "address",
          "name": "",
          "type": "address"
        }
      ],
      "name": "userRewardDebt",
      "outputs": [
        {
          "internalType": "uint256",
          "name": "",
          "type": "uint256"
        }
      ],
      "stateMutability": "view",
      "type": "function"
    },
    {
      "inputs": [],
      "name": "volume24h",
      "outputs": [
        {
          "internalType": "uint256",
          "name": "",
          "type": "uint256"
        }
      ],
      "stateMutability": "view",
      "type": "function"
    }
  ],
  "bytecode": "0x60a06040523073ffffffffffffffffffffffffffffffffffffffff1660809073ffffffffffffffffffffffffffffffffffffffff1681525034801561004357600080fd5b50608051613da161006d600039600081816127f50152818161284a0152612a050152613da16000f3fe6080604052600436106102045760003560e01c8063613e0f5911610118578063c0c53b8b116100a0578063d3986f081161006f578063d3986f0814610753578063dc01f60d1461077c578063dc5fa6c5146107b9578063f140a35a146107e4578063f2fde38b1461082157610204565b8063c0c53b8b14610697578063c89d5b8b146106c0578063d1a86711146106eb578063d2258beb1461071657610204565b806397b3fcaa116100e757806397b3fcaa146105b257806399065b8d146105dd5780639c8f9f231461061a5780639cd441da14610643578063ad3cb1cc1461066c57610204565b8063613e0f5914610508578063715018a61461053357806375a67d5c1461054a5780638da5cb5b1461058757610204565b80632a9efe1d1161019b578063469048401161016a578063469048401461042e5780634bf6f9e7146104595780634f1ef2861461049657806352d1902d146104b25780635f64b55b146104dd57610204565b80632a9efe1d146103865780632d11c58a146103af578063308e401e146103da578063372500ab1461041757610204565b8063140b9d84116101d7578063140b9d84146102c857806319e36f3b146102f357806320aa01b81461031e57806322b9a6401461034957610204565b80630902f1ac1461020957806309c85e24146102355780630d8b48ca146102605780630fc63d101461029d575b600080fd5b34801561021557600080fd5b5061021e61084a565b60405161022c92919061314d565b60405180910390f35b34801561024157600080fd5b5061024a61085b565b6040516102579190613176565b60405180910390f35b34801561026c57600080fd5b5061028760048036038101906102829190613203565b610861565b6040516102949190613176565b60405180910390f35b3480156102a957600080fd5b506102b2610879565b6040516102bf919061323f565b60405180910390f35b3480156102d457600080fd5b506102dd61089d565b6040516102ea9190613176565b60405180910390f35b3480156102ff57600080fd5b506103086108a3565b6040516103159190613176565b60405180910390f35b34801561032a57600080fd5b506103336108a9565b6040516103409190613176565b60405180910390f35b34801561035557600080fd5b50610370600480360381019061036b9190613203565b6108af565b60405161037d9190613176565b60405180910390f35b34801561039257600080fd5b506103ad60048036038101906103a89190613286565b6108c7565b005b3480156103bb57600080fd5b506103c4610c30565b6040516103d19190613176565b60405180910390f35b3480156103e657600080fd5b5061040160048036038101906103fc9190613203565b610c35565b60405161040e9190613176565b60405180910390f35b34801561042357600080fd5b5061042c610d5a565b005b34801561043a57600080fd5b50610443610f2f565b604051610450919061323f565b60405180910390f35b34801561046557600080fd5b50610480600480360381019061047b9190613203565b610f55565b60405161048d9190613176565b60405180910390f35b6104b060048036038101906104ab91906133f9565b610f6d565b005b3480156104be57600080fd5b506104c7610f8c565b6040516104d4919061346e565b60405180910390f35b3480156104e957600080fd5b506104f2610fbf565b6040516104ff919061323f565b60405180910390f35b34801561051457600080fd5b5061051d610fe5565b60405161052a9190613176565b60405180910390f35b34801561053f57600080fd5b50610548610fef565b005b34801561055657600080fd5b50610571600480360381019061056c9190613203565b611003565b60405161057e9190613176565b60405180910390f35b34801561059357600080fd5b5061059c6112df565b6040516105a9919061323f565b60405180910390f35b3480156105be57600080fd5b506105c7611317565b6040516105d49190613176565b60405180910390f35b3480156105e957600080fd5b5061060460048036038101906105ff9190613203565b61132e565b6040516106119190613176565b60405180910390f35b34801561062657600080fd5b50610641600480360381019061063c9190613286565b611346565b005b34801561064f57600080fd5b5061066a60048036038101906106659190613489565b611639565b005b34801561067857600080fd5b5061068161195b565b60405161068e9190613548565b60405180910390f35b3480156106a357600080fd5b506106be60048036038101906106b9919061356a565b611994565b005b3480156106cc57600080fd5b506106d5611d0e565b6040516106e29190613176565b60405180910390f35b3480156106f757600080fd5b50610700611d9f565b60405161070d9190613176565b60405180910390f35b34801561072257600080fd5b5061073d60048036038101906107389190613203565b611da5565b60405161074a9190613176565b60405180910390f35b34801561075f57600080fd5b5061077a600480360381019061077591906135bd565b611dee565b005b34801561078857600080fd5b506107a3600480360381019061079e9190613203565b612293565b6040516107b09190613176565b60405180910390f35b3480156107c557600080fd5b506107ce6122ab565b6040516107db9190613176565b60405180910390f35b3480156107f057600080fd5b5061080b600480360381019061080691906135bd565b6122b1565b6040516108189190613176565b60405180910390f35b34801561082d57600080fd5b5061084860048036038101906108439190613203565b612388565b005b600080600254600354915091509091565b600b5481565b600a6020528060005260406000206000915090505481565b60008054906101000a900473ffffffffffffffffffffffffffffffffffffffff1681565b600d5481565b60035481565b600c5481565b60096020528060005260406000206000915090505481565b6108cf61240e565b6108d833612465565b6000600860003373ffffffffffffffffffffffffffffffffffffffff1673ffffffffffffffffffffffffffffffffffffffff1681526020019081526020016000205490506000811161095f576040517f08c379a000000000000000000000000000000000000000000000000000000000815260040161095690613649565b60405180910390fd5b6000600860003373ffffffffffffffffffffffffffffffffffffffff1673ffffffffffffffffffffffffffffffffffffffff16815260200190815260200160002081905550600160009054906101000a900473ffffffffffffffffffffffffffffffffffffffff1673ffffffffffffffffffffffffffffffffffffffff166323b872dd3330856040518463ffffffff1660e01b8152600401610a0393929190613669565b6020604051808303816000875af1158015610a22573d6000803e3d6000fd5b505050506040513d601f19601f82011682018060405250810190610a4691906136d8565b506000806004541480610a5b57506000600254145b80610a6857506000600354145b15610a8857610a818383610a7c9190613734565b6125c6565b9050610ac9565b610ac660025460045484610a9c9190613734565b610aa691906137a5565b60035460045486610ab79190613734565b610ac191906137a5565b612640565b90505b60008111610b0c576040517f08c379a0000000000000000000000000000000000000000000000000000000008152600401610b0390613822565b60405180910390fd5b80600660003373ffffffffffffffffffffffffffffffffffffffff1673ffffffffffffffffffffffffffffffffffffffff1681526020019081526020016000206000828254610b5b9190613842565b925050819055508060046000828254610b749190613842565b92505081905550610b83612659565b3373ffffffffffffffffffffffffffffffffffffffff167f106f923f993c2149d49b4255ff723acafa1f2d94393f561d3eda32ae348f724183604051610bc99190613176565b60405180910390a23373ffffffffffffffffffffffffffffffffffffffff167f64b83944e79c3ce8d4c297411de637c3e102d064677aac0c163976ebdcd6f50e838584604051610c1b93929190613876565b60405180910390a25050610c2d6127da565b50565b600381565b60008060045403610c495760009050610d55565b6000600454600b54600660008673ffffffffffffffffffffffffffffffffffffffff1673ffffffffffffffffffffffffffffffffffffffff16815260200190815260200160002054610c9b9190613734565b610ca591906137a5565b90506000600760008573ffffffffffffffffffffffffffffffffffffffff1673ffffffffffffffffffffffffffffffffffffffff168152602001908152602001600020549050808211610cf9576000610d06565b8082610d0591906138ad565b5b600860008673ffffffffffffffffffffffffffffffffffffffff1673ffffffffffffffffffffffffffffffffffffffff16815260200190815260200160002054610d509190613842565b925050505b919050565b610d6261240e565b610d6b33612465565b6000600860003373ffffffffffffffffffffffffffffffffffffffff1673ffffffffffffffffffffffffffffffffffffffff16815260200190815260200160002054905060008111610df2576040517f08c379a0000000000000000000000000000000000000000000000000000000008152600401610de990613649565b60405180910390fd5b6000600860003373ffffffffffffffffffffffffffffffffffffffff1673ffffffffffffffffffffffffffffffffffffffff1681526020019081526020016000208190555060008054906101000a900473ffffffffffffffffffffffffffffffffffffffff1673ffffffffffffffffffffffffffffffffffffffff1663a9059cbb33836040518363ffffffff1660e01b8152600401610e929291906138e1565b6020604051808303816000875af1158015610eb1573d6000803e3d6000fd5b505050506040513d601f19601f82011682018060405250810190610ed591906136d8565b503373ffffffffffffffffffffffffffffffffffffffff167f106f923f993c2149d49b4255ff723acafa1f2d94393f561d3eda32ae348f724182604051610f1c9190613176565b60405180910390a250610f2d6127da565b565b600560009054906101000a900473ffffffffffffffffffffffffffffffffffffffff1681565b60076020528060005260406000206000915090505481565b610f756127f3565b610f7e826128d9565b610f8882826128e4565b5050565b6000610f96612a03565b7f360894a13ba1a3210667c828492db98dca3e2076cc3735a920a3ca505d382bbc60001b905090565b600160009054906101000a900473ffffffffffffffffffffffffffffffffffffffff1681565b6000600d54905090565b610ff7612a8a565b6110016000612b11565b565b600080600660008473ffffffffffffffffffffffffffffffffffffffff1673ffffffffffffffffffffffffffffffffffffffff1681526020019081526020016000205490506000600860008573ffffffffffffffffffffffffffffffffffffffff1673ffffffffffffffffffffffffffffffffffffffff168152602001908152602001600020549050600080600454146110bd57600454670de0b6b3a7640000846110ae9190613734565b6110b891906137a5565b6110c0565b60005b90506000662386f26fc10000836110d791906137a5565b655af3107a4000836110e991906137a5565b6110f39190613842565b9050600960008773ffffffffffffffffffffffffffffffffffffffff1673ffffffffffffffffffffffffffffffffffffffff16815260200190815260200160002054600a60008873ffffffffffffffffffffffffffffffffffffffff1673ffffffffffffffffffffffffffffffffffffffff16815260200190815260200160002054111561122957662386f26fc10000600960008873ffffffffffffffffffffffffffffffffffffffff1673ffffffffffffffffffffffffffffffffffffffff16815260200190815260200160002054600a60008973ffffffffffffffffffffffffffffffffffffffff1673ffffffffffffffffffffffffffffffffffffffff1681526020019081526020016000205461120d91906138ad565b61121791906137a5565b816112229190613842565b90506112d3565b662386f26fc10000600a60008873ffffffffffffffffffffffffffffffffffffffff1673ffffffffffffffffffffffffffffffffffffffff16815260200190815260200160002054600960008973ffffffffffffffffffffffffffffffffffffffff1673ffffffffffffffffffffffffffffffffffffffff168152602001908152602001600020546112bb91906138ad565b6112c591906137a5565b816112d091906138ad565b90505b80945050505050919050565b6000806112ea612be8565b90508060000160009054906101000a900473ffffffffffffffffffffffffffffffffffffffff1691505090565b60006003546002546113299190613842565b905090565b60066020528060005260406000206000915090505481565b61134e61240e565b60008111801561139d5750600660003373ffffffffffffffffffffffffffffffffffffffff1673ffffffffffffffffffffffffffffffffffffffff168152602001908152602001600020548111155b6113dc576040517f08c379a00000000000000000000000000000000000000000000000000000000081526004016113d390613956565b60405180910390fd5b6113e533612465565b6000600454600254836113f89190613734565b61140291906137a5565b90506000600454600354846114179190613734565b61142191906137a5565b905082600660003373ffffffffffffffffffffffffffffffffffffffff1673ffffffffffffffffffffffffffffffffffffffff168152602001908152602001600020600082825461147291906138ad565b92505081905550826004600082825461148b91906138ad565b9250508190555060008054906101000a900473ffffffffffffffffffffffffffffffffffffffff1673ffffffffffffffffffffffffffffffffffffffff1663a9059cbb33846040518363ffffffff1660e01b81526004016114ed9291906138e1565b6020604051808303816000875af115801561150c573d6000803e3d6000fd5b505050506040513d601f19601f8201168201806040525081019061153091906136d8565b50600160009054906101000a900473ffffffffffffffffffffffffffffffffffffffff1673ffffffffffffffffffffffffffffffffffffffff1663a9059cbb33836040518363ffffffff1660e01b815260040161158e9291906138e1565b6020604051808303816000875af11580156115ad573d6000803e3d6000fd5b505050506040513d601f19601f820116820180604052508101906115d191906136d8565b506115da612659565b3373ffffffffffffffffffffffffffffffffffffffff167f1dc8bb69df2b8e91fbdcbfcf93d951b3f0000f085a95fe3f7946d6161439245d83838660405161162493929190613876565b60405180910390a250506116366127da565b50565b61164161240e565b6000821180156116515750600081115b611690576040517f08c379a0000000000000000000000000000000000000000000000000000000008152600401611687906139c2565b60405180910390fd5b60008054906101000a900473ffffffffffffffffffffffffffffffffffffffff1673ffffffffffffffffffffffffffffffffffffffff166323b872dd3330856040518463ffffffff1660e01b81526004016116ed93929190613669565b6020604051808303816000875af115801561170c573d6000803e3d6000fd5b505050506040513d601f19601f8201168201806040525081019061173091906136d8565b50600160009054906101000a900473ffffffffffffffffffffffffffffffffffffffff1673ffffffffffffffffffffffffffffffffffffffff166323b872dd3330846040518463ffffffff1660e01b815260040161179093929190613669565b6020604051808303816000875af11580156117af573d6000803e3d6000fd5b505050506040513d601f19601f820116820180604052508101906117d391906136d8565b50600080600454146118225761181d600254600454856117f39190613734565b6117fd91906137a5565b6003546004548561180e9190613734565b61181891906137a5565b612640565b611837565b61183682846118319190613734565b6125c6565b5b90506000811161187c576040517f08c379a000000000000000000000000000000000000000000000000000000000815260040161187390613822565b60405180910390fd5b61188533612465565b80600660003373ffffffffffffffffffffffffffffffffffffffff1673ffffffffffffffffffffffffffffffffffffffff16815260200190815260200160002060008282546118d49190613842565b9250508190555080600460008282546118ed9190613842565b925050819055506118fc612659565b3373ffffffffffffffffffffffffffffffffffffffff167f64b83944e79c3ce8d4c297411de637c3e102d064677aac0c163976ebdcd6f50e84848460405161194693929190613876565b60405180910390a2506119576127da565b5050565b6040518060400160405280600581526020017f352e302e3000000000000000000000000000000000000000000000000000000081525081565b600061199e612c10565b905060008160000160089054906101000a900460ff1615905060008260000160009054906101000a900467ffffffffffffffff1690506000808267ffffffffffffffff161480156119ec5750825b9050600060018367ffffffffffffffff16148015611a21575060003073ffffffffffffffffffffffffffffffffffffffff163b145b905081158015611a2f575080155b15611a66576040517ff92ee8a900000000000000000000000000000000000000000000000000000000815260040160405180910390fd5b60018560000160006101000a81548167ffffffffffffffff021916908367ffffffffffffffff1602179055508315611ab65760018560000160086101000a81548160ff0219169083151502179055505b8673ffffffffffffffffffffffffffffffffffffffff168873ffffffffffffffffffffffffffffffffffffffff1603611b24576040517f08c379a0000000000000000000000000000000000000000000000000000000008152600401611b1b90613a2e565b60405180910390fd5b600073ffffffffffffffffffffffffffffffffffffffff168873ffffffffffffffffffffffffffffffffffffffff1614158015611b8e5750600073ffffffffffffffffffffffffffffffffffffffff168773ffffffffffffffffffffffffffffffffffffffff1614155b611bcd576040517f08c379a0000000000000000000000000000000000000000000000000000000008152600401611bc490613a9a565b60405180910390fd5b611bd686612c24565b611bde612c38565b611be6612c4a565b876000806101000a81548173ffffffffffffffffffffffffffffffffffffffff021916908373ffffffffffffffffffffffffffffffffffffffff16021790555086600160006101000a81548173ffffffffffffffffffffffffffffffffffffffff021916908373ffffffffffffffffffffffffffffffffffffffff16021790555085600560006101000a81548173ffffffffffffffffffffffffffffffffffffffff021916908373ffffffffffffffffffffffffffffffffffffffff1602179055508315611d045760008560000160086101000a81548160ff0219169083151502179055507fc7f505b2f371ae2175ee4913f4499e1f2633a7b5936321eed1cdaeb6115181d26001604051611cfb9190613b13565b60405180910390a15b5050505050505050565b6000806004541480611d2f57506000600354600254611d2d9190613842565b145b15611d3d5760009050611d9c565b600061016d6103e86003600d54611d549190613734565b611d5e91906137a5565b611d689190613734565b90506000600354600254611d7c9190613842565b90508061271083611d8d9190613734565b611d9791906137a5565b925050505b90565b60045481565b6000600660008373ffffffffffffffffffffffffffffffffffffffff1673ffffffffffffffffffffffffffffffffffffffff168152602001908152602001600020549050919050565b611df661240e565b60008211611e39576040517f08c379a0000000000000000000000000000000000000000000000000000000008152600401611e3090613b7a565b60405180910390fd5b60008054906101000a900473ffffffffffffffffffffffffffffffffffffffff1673ffffffffffffffffffffffffffffffffffffffff168173ffffffffffffffffffffffffffffffffffffffff161480611ee05750600160009054906101000a900473ffffffffffffffffffffffffffffffffffffffff1673ffffffffffffffffffffffffffffffffffffffff168173ffffffffffffffffffffffffffffffffffffffff16145b611f1f576040517f08c379a0000000000000000000000000000000000000000000000000000000008152600401611f1690613be6565b60405180910390fd5b60008060009054906101000a900473ffffffffffffffffffffffffffffffffffffffff1673ffffffffffffffffffffffffffffffffffffffff168273ffffffffffffffffffffffffffffffffffffffff1614611f9b5760008054906101000a900473ffffffffffffffffffffffffffffffffffffffff16611fbf565b600160009054906101000a900473ffffffffffffffffffffffffffffffffffffffff165b90506000611fcd84846122b1565b905060008111612012576040517f08c379a000000000000000000000000000000000000000000000000000000000815260040161200990613c52565b60405180910390fd5b8273ffffffffffffffffffffffffffffffffffffffff166323b872dd3330876040518463ffffffff1660e01b815260040161204f93929190613669565b6020604051808303816000875af115801561206e573d6000803e3d6000fd5b505050506040513d601f19601f8201168201806040525081019061209291906136d8565b5060006103e86003866120a59190613734565b6120af91906137a5565b905080600b60008282546120c39190613842565b925050819055508273ffffffffffffffffffffffffffffffffffffffff1663a9059cbb33846040518363ffffffff1660e01b81526004016121059291906138e1565b6020604051808303816000875af1158015612124573d6000803e3d6000fd5b505050506040513d601f19601f8201168201806040525081019061214891906136d8565b5084600960003373ffffffffffffffffffffffffffffffffffffffff1673ffffffffffffffffffffffffffffffffffffffff16815260200190815260200160002060008282546121989190613842565b9250508190555081600a60003373ffffffffffffffffffffffffffffffffffffffff1673ffffffffffffffffffffffffffffffffffffffff16815260200190815260200160002060008282546121ee9190613842565b925050819055506121fd612659565b61220685612c54565b8273ffffffffffffffffffffffffffffffffffffffff168473ffffffffffffffffffffffffffffffffffffffff163373ffffffffffffffffffffffffffffffffffffffff167f6782190c91d4a7e8ad2a867deed6ec0a970cab8ff137ae2bd4abd92b3810f4d3888660405161227c92919061314d565b60405180910390a450505061228f6127da565b5050565b60086020528060005260406000206000915090505481565b60025481565b60008060008054906101000a900473ffffffffffffffffffffffffffffffffffffffff1673ffffffffffffffffffffffffffffffffffffffff168373ffffffffffffffffffffffffffffffffffffffff16149050600080826123185760035460025461231f565b6002546003545b91509150600060036103e861233491906138ad565b8761233f9190613734565b90506000828261234f9190613734565b90506000826103e8866123629190613734565b61236c9190613842565b9050808261237a91906137a5565b965050505050505092915050565b612390612a8a565b600073ffffffffffffffffffffffffffffffffffffffff168173ffffffffffffffffffffffffffffffffffffffff16036124025760006040517f1e4fbdf70000000000000000000000000000000000000000000000000000000081526004016123f9919061323f565b60405180910390fd5b61240b81612b11565b50565b6000612418612c9c565b90506002816000015403612458576040517f3ee5aeb500000000000000000000000000000000000000000000000000000000815260040160405180910390fd5b6002816000018190555050565b600060045403156125c3576000600454600b54600660008573ffffffffffffffffffffffffffffffffffffffff1673ffffffffffffffffffffffffffffffffffffffff168152602001908152602001600020546124c29190613734565b6124cc91906137a5565b90506000600760008473ffffffffffffffffffffffffffffffffffffffff1673ffffffffffffffffffffffffffffffffffffffff1681526020019081526020016000205490508082111561257c57808261252691906138ad565b600860008573ffffffffffffffffffffffffffffffffffffffff1673ffffffffffffffffffffffffffffffffffffffff16815260200190815260200160002060008282546125749190613842565b925050819055505b81600760008573ffffffffffffffffffffffffffffffffffffffff1673ffffffffffffffffffffffffffffffffffffffff1681526020019081526020016000208190555050505b50565b6000600382111561262d57819050600060016002846125e591906137a5565b6125ef9190613842565b90505b8181101561262757809150600281828561260c91906137a5565b6126169190613842565b61262091906137a5565b90506125f2565b5061263b565b6000821461263a57600190505b5b919050565b600081831061264f5781612651565b825b905092915050565b60008054906101000a900473ffffffffffffffffffffffffffffffffffffffff1673ffffffffffffffffffffffffffffffffffffffff166370a08231306040518263ffffffff1660e01b81526004016126b2919061323f565b602060405180830381865afa1580156126cf573d6000803e3d6000fd5b505050506040513d601f19601f820116820180604052508101906126f39190613c87565b600281905550600160009054906101000a900473ffffffffffffffffffffffffffffffffffffffff1673ffffffffffffffffffffffffffffffffffffffff166370a08231306040518263ffffffff1660e01b8152600401612754919061323f565b602060405180830381865afa158015612771573d6000803e3d6000fd5b505050506040513d601f19601f820116820180604052508101906127959190613c87565b6003819055507fd6e74d43cd1c8c6b2d29be11f4977cc5e9c713288fddb50f44d82fd5e34b91196002546003546040516127d092919061314d565b60405180910390a1565b60006127e4612c9c565b90506001816000018190555050565b7f000000000000000000000000000000000000000000000000000000000000000073ffffffffffffffffffffffffffffffffffffffff163073ffffffffffffffffffffffffffffffffffffffff1614806128a057507f000000000000000000000000000000000000000000000000000000000000000073ffffffffffffffffffffffffffffffffffffffff16612887612cc4565b73ffffffffffffffffffffffffffffffffffffffff1614155b156128d7576040517fe07c8dba00000000000000000000000000000000000000000000000000000000815260040160405180910390fd5b565b6128e1612a8a565b50565b8173ffffffffffffffffffffffffffffffffffffffff166352d1902d6040518163ffffffff1660e01b8152600401602060405180830381865afa92505050801561294c57506040513d601f19601f820116820180604052508101906129499190613ce0565b60015b61298d57816040517f4c9c8ce3000000000000000000000000000000000000000000000000000000008152600401612984919061323f565b60405180910390fd5b7f360894a13ba1a3210667c828492db98dca3e2076cc3735a920a3ca505d382bbc60001b81146129f457806040517faa1d49a40000000000000000000000000000000000000000000000000000000081526004016129eb919061346e565b60405180910390fd5b6129fe8383612d1b565b505050565b7f000000000000000000000000000000000000000000000000000000000000000073ffffffffffffffffffffffffffffffffffffffff163073ffffffffffffffffffffffffffffffffffffffff1614612a88576040517fe07c8dba00000000000000000000000000000000000000000000000000000000815260040160405180910390fd5b565b612a92612d8e565b73ffffffffffffffffffffffffffffffffffffffff16612ab06112df565b73ffffffffffffffffffffffffffffffffffffffff1614612b0f57612ad3612d8e565b6040517f118cdaa7000000000000000000000000000000000000000000000000000000008152600401612b06919061323f565b60405180910390fd5b565b6000612b1b612be8565b905060008160000160009054906101000a900473ffffffffffffffffffffffffffffffffffffffff169050828260000160006101000a81548173ffffffffffffffffffffffffffffffffffffffff021916908373ffffffffffffffffffffffffffffffffffffffff1602179055508273ffffffffffffffffffffffffffffffffffffffff168173ffffffffffffffffffffffffffffffffffffffff167f8be0079c531659141344cd1fd0a4f28419497f9722a3daafe3b4186f6b6457e060405160405180910390a3505050565b60007f9016d09d72d40fdae2fd8ceac6b6234c7706214fd39c1cd1e609a0528c199300905090565b600080612c1b612d96565b90508091505090565b612c2c612dc1565b612c3581612e01565b50565b612c40612dc1565b612c48612e87565b565b612c52612dc1565b565b62015180600c5442612c6691906138ad565b1115612c7f5780600d8190555042600c81905550612c99565b80600d6000828254612c919190613842565b925050819055505b50565b60007f9b779b17422d0df92223018b32b4d1fa46e071723d6817e2486d003becc55f00905090565b6000612cf27f360894a13ba1a3210667c828492db98dca3e2076cc3735a920a3ca505d382bbc60001b612ea8565b60000160009054906101000a900473ffffffffffffffffffffffffffffffffffffffff16905090565b612d2482612eb2565b8173ffffffffffffffffffffffffffffffffffffffff167fbc7cd75a20ee27fd9adebab32041f755214dbc6bffa90cc0225b39da2e5c2d3b60405160405180910390a2600081511115612d8157612d7b8282612f7f565b50612d8a565b612d89613003565b5b5050565b600033905090565b60007ff0c57e16840df040f15088dc2f81fe391c3923bec73e23a9662efc9c229c6a0060001b905090565b612dc9613040565b612dff576040517fd7e6bcf800000000000000000000000000000000000000000000000000000000815260040160405180910390fd5b565b612e09612dc1565b600073ffffffffffffffffffffffffffffffffffffffff168173ffffffffffffffffffffffffffffffffffffffff1603612e7b5760006040517f1e4fbdf7000000000000000000000000000000000000000000000000000000008152600401612e72919061323f565b60405180910390fd5b612e8481612b11565b50565b612e8f612dc1565b6000612e99612c9c565b90506001816000018190555050565b6000819050919050565b60008173ffffffffffffffffffffffffffffffffffffffff163b03612f0e57806040517f4c9c8ce3000000000000000000000000000000000000000000000000000000008152600401612f05919061323f565b60405180910390fd5b80612f3b7f360894a13ba1a3210667c828492db98dca3e2076cc3735a920a3ca505d382bbc60001b612ea8565b60000160006101000a81548173ffffffffffffffffffffffffffffffffffffffff021916908373ffffffffffffffffffffffffffffffffffffffff16021790555050565b60606000808473ffffffffffffffffffffffffffffffffffffffff1684604051612fa99190613d54565b600060405180830381855af49150503d8060008114612fe4576040519150601f19603f3d011682016040523d82523d6000602084013e612fe9565b606091505b5091509150612ff9858383613060565b9250505092915050565b600034111561303e576040517fb398979f00000000000000000000000000000000000000000000000000000000815260040160405180910390fd5b565b600061304a612c10565b60000160089054906101000a900460ff16905090565b60608261307557613070826130ef565b6130e7565b6000825114801561309d575060008473ffffffffffffffffffffffffffffffffffffffff163b145b156130df57836040517f9996b3150000000000000000000000000000000000000000000000000000000081526004016130d6919061323f565b60405180910390fd5b8190506130e8565b5b9392505050565b6000815111156131025780518082602001fd5b6040517fd6bda27500000000000000000000000000000000000000000000000000000000815260040160405180910390fd5b6000819050919050565b61314781613134565b82525050565b6000604082019050613162600083018561313e565b61316f602083018461313e565b9392505050565b600060208201905061318b600083018461313e565b92915050565b6000604051905090565b600080fd5b600080fd5b600073ffffffffffffffffffffffffffffffffffffffff82169050919050565b60006131d0826131a5565b9050919050565b6131e0816131c5565b81146131eb57600080fd5b50565b6000813590506131fd816131d7565b92915050565b6000602082840312156132195761321861319b565b5b6000613227848285016131ee565b91505092915050565b613239816131c5565b82525050565b60006020820190506132546000830184613230565b92915050565b61326381613134565b811461326e57600080fd5b50565b6000813590506132808161325a565b92915050565b60006020828403121561329c5761329b61319b565b5b60006132aa84828501613271565b91505092915050565b600080fd5b600080fd5b6000601f19601f8301169050919050565b7f4e487b7100000000000000000000000000000000000000000000000000000000600052604160045260246000fd5b613306826132bd565b810181811067ffffffffffffffff82111715613325576133246132ce565b5b80604052505050565b6000613338613191565b905061334482826132fd565b919050565b600067ffffffffffffffff821115613364576133636132ce565b5b61336d826132bd565b9050602081019050919050565b82818337600083830152505050565b600061339c61339784613349565b61332e565b9050828152602081018484840111156133b8576133b76132b8565b5b6133c384828561337a565b509392505050565b600082601f8301126133e0576133df6132b3565b5b81356133f0848260208601613389565b91505092915050565b600080604083850312156134105761340f61319b565b5b600061341e858286016131ee565b925050602083013567ffffffffffffffff81111561343f5761343e6131a0565b5b61344b858286016133cb565b9150509250929050565b6000819050919050565b61346881613455565b82525050565b6000602082019050613483600083018461345f565b92915050565b600080604083850312156134a05761349f61319b565b5b60006134ae85828601613271565b92505060206134bf85828601613271565b9150509250929050565b600081519050919050565b600082825260208201905092915050565b60005b838110156135035780820151818401526020810190506134e8565b60008484015250505050565b600061351a826134c9565b61352481856134d4565b93506135348185602086016134e5565b61353d816132bd565b840191505092915050565b60006020820190508181036000830152613562818461350f565b905092915050565b6000806000606084860312156135835761358261319b565b5b6000613591868287016131ee565b93505060206135a2868287016131ee565b92505060406135b3868287016131ee565b9150509250925092565b600080604083850312156135d4576135d361319b565b5b60006135e285828601613271565b92505060206135f3858286016131ee565b9150509250929050565b7f4e6f207265776172647300000000000000000000000000000000000000000000600082015250565b6000613633600a836134d4565b915061363e826135fd565b602082019050919050565b6000602082019050818103600083015261366281613626565b9050919050565b600060608201905061367e6000830186613230565b61368b6020830185613230565b613698604083018461313e565b949350505050565b60008115159050919050565b6136b5816136a0565b81146136c057600080fd5b50565b6000815190506136d2816136ac565b92915050565b6000602082840312156136ee576136ed61319b565b5b60006136fc848285016136c3565b91505092915050565b7f4e487b7100000000000000000000000000000000000000000000000000000000600052601160045260246000fd5b600061373f82613134565b915061374a83613134565b925082820261375881613134565b9150828204841483151761376f5761376e613705565b5b5092915050565b7f4e487b7100000000000000000000000000000000000000000000000000000000600052601260045260246000fd5b60006137b082613134565b91506137bb83613134565b9250826137cb576137ca613776565b5b828204905092915050565b7f5a65726f204c50206d696e746564000000000000000000000000000000000000600082015250565b600061380c600e836134d4565b9150613817826137d6565b602082019050919050565b6000602082019050818103600083015261383b816137ff565b9050919050565b600061384d82613134565b915061385883613134565b92508282019050808211156138705761386f613705565b5b92915050565b600060608201905061388b600083018661313e565b613898602083018561313e565b6138a5604083018461313e565b949350505050565b60006138b882613134565b91506138c383613134565b92508282039050818111156138db576138da613705565b5b92915050565b60006040820190506138f66000830185613230565b613903602083018461313e565b9392505050565b7f496e76616c6964204c5020616d6f756e74000000000000000000000000000000600082015250565b60006139406011836134d4565b915061394b8261390a565b602082019050919050565b6000602082019050818103600083015261396f81613933565b9050919050565b7f496e76616c696420696e70757400000000000000000000000000000000000000600082015250565b60006139ac600d836134d4565b91506139b782613976565b602082019050919050565b600060208201905081810360008301526139db8161399f565b9050919050565b7f4964656e746963616c2061646472657373657300000000000000000000000000600082015250565b6000613a186013836134d4565b9150613a23826139e2565b602082019050919050565b60006020820190508181036000830152613a4781613a0b565b9050919050565b7f5a65726f20616464726573730000000000000000000000000000000000000000600082015250565b6000613a84600c836134d4565b9150613a8f82613a4e565b602082019050919050565b60006020820190508181036000830152613ab381613a77565b9050919050565b6000819050919050565b600067ffffffffffffffff82169050919050565b6000819050919050565b6000613afd613af8613af384613aba565b613ad8565b613ac4565b9050919050565b613b0d81613ae2565b82525050565b6000602082019050613b286000830184613b04565b92915050565b7f5a65726f20696e70757400000000000000000000000000000000000000000000600082015250565b6000613b64600a836134d4565b9150613b6f82613b2e565b602082019050919050565b60006020820190508181036000830152613b9381613b57565b9050919050565b7f496e76616c696420696e70757420746f6b656e00000000000000000000000000600082015250565b6000613bd06013836134d4565b9150613bdb82613b9a565b602082019050919050565b60006020820190508181036000830152613bff81613bc3565b9050919050565b7f5a65726f206f7574707574000000000000000000000000000000000000000000600082015250565b6000613c3c600b836134d4565b9150613c4782613c06565b602082019050919050565b60006020820190508181036000830152613c6b81613c2f565b9050919050565b600081519050613c818161325a565b92915050565b600060208284031215613c9d57613c9c61319b565b5b6000613cab84828501613c72565b91505092915050565b613cbd81613455565b8114613cc857600080fd5b50565b600081519050613cda81613cb4565b92915050565b600060208284031215613cf657613cf561319b565b5b6000613d0484828501613ccb565b91505092915050565b600081519050919050565b600081905092915050565b6000613d2e82613d0d565b613d388185613d18565b9350613d488185602086016134e5565b80840191505092915050565b6000613d608284613d23565b91508190509291505056fea2646970667358221220ef8ba9daa9a2481d7889fd5279ab676875a1e7b600e9015114523501fb307aa564736f6c63430008160033",
  "linkReferences": {},
  "deployedLinkReferences": {}
}