{
  "_format": "hh-sol-artifact-1",
  "contractName": "MiniDexPairUpgradeable",
  "sourceName": "contracts/MiniDexPairUpgradeable.sol",
  "abi": [
    {
      "inputs": [
        {
          "internalType": "address",
          "name": "target",
          "type": "address"
        }
      ],
      "name": "AddressEmptyCode",
      "type": "error"
    },
    {
      "inputs": [
        {
          "internalType": "address",
          "name": "implementation",
          "type": "address"
        }
      ],
      "name": "ERC1967InvalidImplementation",
      "type": "error"
    },
    {
      "inputs": [],
      "name": "ERC1967NonPayable",
      "type": "error"
    },
    {
      "inputs": [],
      "name": "FailedCall",
      "type": "error"
    },
    {
      "inputs": [],
      "name": "InvalidInitialization",
      "type": "error"
    },
    {
      "inputs": [],
      "name": "NotInitializing",
      "type": "error"
    },
    {
      "inputs": [
        {
          "internalType": "address",
          "name": "owner",
          "type": "address"
        }
      ],
      "name": "OwnableInvalidOwner",
      "type": "error"
    },
    {
      "inputs": [
        {
          "internalType": "address",
          "name": "account",
          "type": "address"
        }
      ],
      "name": "OwnableUnauthorizedAccount",
      "type": "error"
    },
    {
      "inputs": [],
      "name": "ReentrancyGuardReentrantCall",
      "type": "error"
    },
    {
      "inputs": [],
      "name": "UUPSUnauthorizedCallContext",
      "type": "error"
    },
    {
      "inputs": [
        {
          "internalType": "bytes32",
          "name": "slot",
          "type": "bytes32"
        }
      ],
      "name": "UUPSUnsupportedProxiableUUID",
      "type": "error"
    },
    {
      "anonymous": false,
      "inputs": [
        {
          "indexed": false,
          "internalType": "uint64",
          "name": "version",
          "type": "uint64"
        }
      ],
      "name": "Initialized",
      "type": "event"
    },
    {
      "anonymous": false,
      "inputs": [
        {
          "indexed": true,
          "internalType": "address",
          "name": "provider",
          "type": "address"
        },
        {
          "indexed": false,
          "internalType": "uint256",
          "name": "amountA",
          "type": "uint256"
        },
        {
          "indexed": false,
          "internalType": "uint256",
          "name": "amountB",
          "type": "uint256"
        },
        {
          "indexed": false,
          "internalType": "uint256",
          "name": "lpMinted",
          "type": "uint256"
        }
      ],
      "name": "LiquidityAdded",
      "type": "event"
    },
    {
      "anonymous": false,
      "inputs": [
        {
          "indexed": true,
          "internalType": "address",
          "name": "provider",
          "type": "address"
        },
        {
          "indexed": false,
          "internalType": "uint256",
          "name": "amountA",
          "type": "uint256"
        },
        {
          "indexed": false,
          "internalType": "uint256",
          "name": "amountB",
          "type": "uint256"
        },
        {
          "indexed": false,
          "internalType": "uint256",
          "name": "lpBurned",
          "type": "uint256"
        }
      ],
      "name": "LiquidityRemoved",
      "type": "event"
    },
    {
      "anonymous": false,
      "inputs": [
        {
          "indexed": true,
          "internalType": "address",
          "name": "previousOwner",
          "type": "address"
        },
        {
          "indexed": true,
          "internalType": "address",
          "name": "newOwner",
          "type": "address"
        }
      ],
      "name": "OwnershipTransferred",
      "type": "event"
    },
    {
      "anonymous": false,
      "inputs": [
        {
          "indexed": false,
          "internalType": "uint256",
          "name": "reserveA",
          "type": "uint256"
        },
        {
          "indexed": false,
          "internalType": "uint256",
          "name": "reserveB",
          "type": "uint256"
        }
      ],
      "name": "ReserveSynced",
      "type": "event"
    },
    {
      "anonymous": false,
      "inputs": [
        {
          "indexed": true,
          "internalType": "address",
          "name": "user",
          "type": "address"
        },
        {
          "indexed": false,
          "internalType": "uint256",
          "name": "rewardAmount",
          "type": "uint256"
        }
      ],
      "name": "RewardClaimed",
      "type": "event"
    },
    {
      "anonymous": false,
      "inputs": [
        {
          "indexed": true,
          "internalType": "address",
          "name": "user",
          "type": "address"
        },
        {
          "indexed": true,
          "internalType": "address",
          "name": "inputToken",
          "type": "address"
        },
        {
          "indexed": true,
          "internalType": "address",
          "name": "outputToken",
          "type": "address"
        },
        {
          "indexed": false,
          "internalType": "uint256",
          "name": "inputAmount",
          "type": "uint256"
        },
        {
          "indexed": false,
          "internalType": "uint256",
          "name": "outputAmount",
          "type": "uint256"
        }
      ],
      "name": "Swapped",
      "type": "event"
    },
    {
      "anonymous": false,
      "inputs": [
        {
          "indexed": true,
          "internalType": "address",
          "name": "implementation",
          "type": "address"
        }
      ],
      "name": "Upgraded",
      "type": "event"
    },
    {
      "inputs": [],
      "name": "FEE_RATE",
      "outputs": [
        {
          "internalType": "uint256",
          "name": "",
          "type": "uint256"
        }
      ],
      "stateMutability": "view",
      "type": "function"
    },
    {
      "inputs": [
        {
          "internalType": "address",
          "name": "",
          "type": "address"
        }
      ],
      "name": "LPbalances",
      "outputs": [
        {
          "internalType": "uint256",
          "name": "",
          "type": "uint256"
        }
      ],
      "stateMutability": "view",
      "type": "function"
    },
    {
      "inputs": [],
      "name": "UPGRADE_INTERFACE_VERSION",
      "outputs": [
        {
          "internalType": "string",
          "name": "",
          "type": "string"
        }
      ],
      "stateMutability": "view",
      "type": "function"
    },
    {
      "inputs": [
        {
          "internalType": "uint256",
          "name": "amountA",
          "type": "uint256"
        },
        {
          "internalType": "uint256",
          "name": "amountB",
          "type": "uint256"
        }
      ],
      "name": "addLiquidity",
      "outputs": [],
      "stateMutability": "nonpayable",
      "type": "function"
    },
    {
      "inputs": [
        {
          "internalType": "uint256",
          "name": "amountB",
          "type": "uint256"
        }
      ],
      "name": "claimAndReinvest",
      "outputs": [],
      "stateMutability": "nonpayable",
      "type": "function"
    },
    {
      "inputs": [],
      "name": "claimRewards",
      "outputs": [],
      "stateMutability": "nonpayable",
      "type": "function"
    },
    {
      "inputs": [
        {
          "internalType": "address",
          "name": "",
          "type": "address"
        }
      ],
      "name": "claimableRewards",
      "outputs": [
        {
          "internalType": "uint256",
          "name": "",
          "type": "uint256"
        }
      ],
      "stateMutability": "view",
      "type": "function"
    },
    {
      "inputs": [],
      "name": "feeRecipient",
      "outputs": [
        {
          "internalType": "address",
          "name": "",
          "type": "address"
        }
      ],
      "stateMutability": "view",
      "type": "function"
    },
    {
      "inputs": [],
      "name": "get24hVolume",
      "outputs": [
        {
          "internalType": "uint256",
          "name": "",
          "type": "uint256"
        }
      ],
      "stateMutability": "view",
      "type": "function"
    },
    {
      "inputs": [],
      "name": "getAPR",
      "outputs": [
        {
          "internalType": "uint256",
          "name": "",
          "type": "uint256"
        }
      ],
      "stateMutability": "view",
      "type": "function"
    },
    {
      "inputs": [
        {
          "internalType": "uint256",
          "name": "inputAmount",
          "type": "uint256"
        },
        {
          "internalType": "address",
          "name": "inputToken",
          "type": "address"
        }
      ],
      "name": "getAmountOut",
      "outputs": [
        {
          "internalType": "uint256",
          "name": "outputAmount",
          "type": "uint256"
        }
      ],
      "stateMutability": "view",
      "type": "function"
    },
    {
      "inputs": [
        {
          "internalType": "address",
          "name": "user",
          "type": "address"
        }
      ],
      "name": "getClaimableRewards",
      "outputs": [
        {
          "internalType": "uint256",
          "name": "",
          "type": "uint256"
        }
      ],
      "stateMutability": "view",
      "type": "function"
    },
    {
      "inputs": [
        {
          "internalType": "address",
          "name": "user",
          "type": "address"
        }
      ],
      "name": "getLPBalance",
      "outputs": [
        {
          "internalType": "uint256",
          "name": "",
          "type": "uint256"
        }
      ],
      "stateMutability": "view",
      "type": "function"
    },
    {
      "inputs": [],
      "name": "getReserves",
      "outputs": [
        {
          "internalType": "uint256",
          "name": "",
          "type": "uint256"
        },
        {
          "internalType": "uint256",
          "name": "",
          "type": "uint256"
        }
      ],
      "stateMutability": "view",
      "type": "function"
    },
    {
      "inputs": [],
      "name": "getTVL",
      "outputs": [
        {
          "internalType": "uint256",
          "name": "",
          "type": "uint256"
        }
      ],
      "stateMutability": "view",
      "type": "function"
    },
    {
      "inputs": [
        {
          "internalType": "address",
          "name": "_tokenA",
          "type": "address"
        },
        {
          "internalType": "address",
          "name": "_tokenB",
          "type": "address"
        },
        {
          "internalType": "address",
          "name": "_owner",
          "type": "address"
        }
      ],
      "name": "initialize",
      "outputs": [],
      "stateMutability": "nonpayable",
      "type": "function"
    },
    {
      "inputs": [],
      "name": "lastVolumeTimestamp",
      "outputs": [
        {
          "internalType": "uint256",
          "name": "",
          "type": "uint256"
        }
      ],
      "stateMutability": "view",
      "type": "function"
    },
    {
      "inputs": [],
      "name": "owner",
      "outputs": [
        {
          "internalType": "address",
          "name": "",
          "type": "address"
        }
      ],
      "stateMutability": "view",
      "type": "function"
    },
    {
      "inputs": [],
      "name": "proxiableUUID",
      "outputs": [
        {
          "internalType": "bytes32",
          "name": "",
          "type": "bytes32"
        }
      ],
      "stateMutability": "view",
      "type": "function"
    },
    {
      "inputs": [
        {
          "internalType": "uint256",
          "name": "lpAmount",
          "type": "uint256"
        }
      ],
      "name": "removeLiquidity",
      "outputs": [],
      "stateMutability": "nonpayable",
      "type": "function"
    },
    {
      "inputs": [],
      "name": "renounceOwnership",
      "outputs": [],
      "stateMutability": "nonpayable",
      "type": "function"
    },
    {
      "inputs": [],
      "name": "reserveA",
      "outputs": [
        {
          "internalType": "uint256",
          "name": "",
          "type": "uint256"
        }
      ],
      "stateMutability": "view",
      "type": "function"
    },
    {
      "inputs": [],
      "name": "reserveB",
      "outputs": [
        {
          "internalType": "uint256",
          "name": "",
          "type": "uint256"
        }
      ],
      "stateMutability": "view",
      "type": "function"
    },
    {
      "inputs": [
        {
          "internalType": "uint256",
          "name": "inputAmount",
          "type": "uint256"
        },
        {
          "internalType": "address",
          "name": "inputToken",
          "type": "address"
        }
      ],
      "name": "swap",
      "outputs": [],
      "stateMutability": "nonpayable",
      "type": "function"
    },
    {
      "inputs": [],
      "name": "tokenA",
      "outputs": [
        {
          "internalType": "address",
          "name": "",
          "type": "address"
        }
      ],
      "stateMutability": "view",
      "type": "function"
    },
    {
      "inputs": [],
      "name": "tokenB",
      "outputs": [
        {
          "internalType": "address",
          "name": "",
          "type": "address"
        }
      ],
      "stateMutability": "view",
      "type": "function"
    },
    {
      "inputs": [],
      "name": "totalLPSupply",
      "outputs": [
        {
          "internalType": "uint256",
          "name": "",
          "type": "uint256"
        }
      ],
      "stateMutability": "view",
      "type": "function"
    },
    {
      "inputs": [],
      "name": "totalRewardPool",
      "outputs": [
        {
          "internalType": "uint256",
          "name": "",
          "type": "uint256"
        }
      ],
      "stateMutability": "view",
      "type": "function"
    },
    {
      "inputs": [
        {
          "internalType": "address",
          "name": "newOwner",
          "type": "address"
        }
      ],
      "name": "transferOwnership",
      "outputs": [],
      "stateMutability": "nonpayable",
      "type": "function"
    },
    {
      "inputs": [
        {
          "internalType": "address",
          "name": "newImplementation",
          "type": "address"
        },
        {
          "internalType": "bytes",
          "name": "data",
          "type": "bytes"
        }
      ],
      "name": "upgradeToAndCall",
      "outputs": [],
      "stateMutability": "payable",
      "type": "function"
    },
    {
      "inputs": [
        {
          "internalType": "address",
          "name": "",
          "type": "address"
        }
      ],
      "name": "userRewardDebt",
      "outputs": [
        {
          "internalType": "uint256",
          "name": "",
          "type": "uint256"
        }
      ],
      "stateMutability": "view",
      "type": "function"
    },
    {
      "inputs": [],
      "name": "volume24h",
      "outputs": [
        {
          "internalType": "uint256",
          "name": "",
          "type": "uint256"
        }
      ],
      "stateMutability": "view",
      "type": "function"
    }
  ],
  "bytecode": "0x60a06040523073ffffffffffffffffffffffffffffffffffffffff1660809073ffffffffffffffffffffffffffffffffffffffff1681525034801561004357600080fd5b5060805161391161006d60003960008181612365015281816123ba015261257501526139116000f3fe6080604052600436106101e35760003560e01c8063715018a611610102578063c89d5b8b11610095578063dc01f60d11610064578063dc01f60d146106a4578063dc5fa6c5146106e1578063f140a35a1461070c578063f2fde38b14610749576101e3565b8063c89d5b8b146105e8578063d1a8671114610613578063d2258beb1461063e578063d3986f081461067b576101e3565b80639c8f9f23116100d15780639c8f9f23146105425780639cd441da1461056b578063ad3cb1cc14610594578063c0c53b8b146105bf576101e3565b8063715018a6146104985780638da5cb5b146104af57806397b3fcaa146104da57806399065b8d14610505576101e3565b8063308e401e1161017a5780634f1ef286116101495780634f1ef286146103fb57806352d1902d146104175780635f64b55b14610442578063613e0f591461046d576101e3565b8063308e401e1461033f578063372500ab1461037c57806346904840146103935780634bf6f9e7146103be576101e3565b806319e36f3b116101b657806319e36f3b1461029557806320aa01b8146102c05780632a9efe1d146102eb5780632d11c58a14610314576101e3565b80630902f1ac146101e857806309c85e24146102145780630fc63d101461023f578063140b9d841461026a575b600080fd5b3480156101f457600080fd5b506101fd610772565b60405161020b929190612cbd565b60405180910390f35b34801561022057600080fd5b50610229610783565b6040516102369190612ce6565b60405180910390f35b34801561024b57600080fd5b50610254610789565b6040516102619190612d42565b60405180910390f35b34801561027657600080fd5b5061027f6107ad565b60405161028c9190612ce6565b60405180910390f35b3480156102a157600080fd5b506102aa6107b3565b6040516102b79190612ce6565b60405180910390f35b3480156102cc57600080fd5b506102d56107b9565b6040516102e29190612ce6565b60405180910390f35b3480156102f757600080fd5b50610312600480360381019061030d9190612d9d565b6107bf565b005b34801561032057600080fd5b50610329610b28565b6040516103369190612ce6565b60405180910390f35b34801561034b57600080fd5b5061036660048036038101906103619190612df6565b610b2d565b6040516103739190612ce6565b60405180910390f35b34801561038857600080fd5b50610391610c52565b005b34801561039f57600080fd5b506103a8610e27565b6040516103b59190612d42565b60405180910390f35b3480156103ca57600080fd5b506103e560048036038101906103e09190612df6565b610e4d565b6040516103f29190612ce6565b60405180910390f35b61041560048036038101906104109190612f69565b610e65565b005b34801561042357600080fd5b5061042c610e84565b6040516104399190612fde565b60405180910390f35b34801561044e57600080fd5b50610457610eb7565b6040516104649190612d42565b60405180910390f35b34801561047957600080fd5b50610482610edd565b60405161048f9190612ce6565b60405180910390f35b3480156104a457600080fd5b506104ad610ee7565b005b3480156104bb57600080fd5b506104c4610efb565b6040516104d19190612d42565b60405180910390f35b3480156104e657600080fd5b506104ef610f33565b6040516104fc9190612ce6565b60405180910390f35b34801561051157600080fd5b5061052c60048036038101906105279190612df6565b610f4a565b6040516105399190612ce6565b60405180910390f35b34801561054e57600080fd5b5061056960048036038101906105649190612d9d565b610f62565b005b34801561057757600080fd5b50610592600480360381019061058d9190612ff9565b611255565b005b3480156105a057600080fd5b506105a9611577565b6040516105b691906130b8565b60405180910390f35b3480156105cb57600080fd5b506105e660048036038101906105e191906130da565b6115b0565b005b3480156105f457600080fd5b506105fd61192a565b60405161060a9190612ce6565b60405180910390f35b34801561061f57600080fd5b506106286119bb565b6040516106359190612ce6565b60405180910390f35b34801561064a57600080fd5b5061066560048036038101906106609190612df6565b6119c1565b6040516106729190612ce6565b60405180910390f35b34801561068757600080fd5b506106a2600480360381019061069d919061312d565b611a0a565b005b3480156106b057600080fd5b506106cb60048036038101906106c69190612df6565b611e03565b6040516106d89190612ce6565b60405180910390f35b3480156106ed57600080fd5b506106f6611e1b565b6040516107039190612ce6565b60405180910390f35b34801561071857600080fd5b50610733600480360381019061072e919061312d565b611e21565b6040516107409190612ce6565b60405180910390f35b34801561075557600080fd5b50610770600480360381019061076b9190612df6565b611ef8565b005b600080600254600354915091509091565b60095481565b60008054906101000a900473ffffffffffffffffffffffffffffffffffffffff1681565b600b5481565b60035481565b600a5481565b6107c7611f7e565b6107d033611fd5565b6000600860003373ffffffffffffffffffffffffffffffffffffffff1673ffffffffffffffffffffffffffffffffffffffff16815260200190815260200160002054905060008111610857576040517f08c379a000000000000000000000000000000000000000000000000000000000815260040161084e906131b9565b60405180910390fd5b6000600860003373ffffffffffffffffffffffffffffffffffffffff1673ffffffffffffffffffffffffffffffffffffffff16815260200190815260200160002081905550600160009054906101000a900473ffffffffffffffffffffffffffffffffffffffff1673ffffffffffffffffffffffffffffffffffffffff166323b872dd3330856040518463ffffffff1660e01b81526004016108fb939291906131d9565b6020604051808303816000875af115801561091a573d6000803e3d6000fd5b505050506040513d601f19601f8201168201806040525081019061093e9190613248565b50600080600454148061095357506000600254145b8061096057506000600354145b1561098057610979838361097491906132a4565b612136565b90506109c1565b6109be6002546004548461099491906132a4565b61099e9190613315565b600354600454866109af91906132a4565b6109b99190613315565b6121b0565b90505b60008111610a04576040517f08c379a00000000000000000000000000000000000000000000000000000000081526004016109fb90613392565b60405180910390fd5b80600660003373ffffffffffffffffffffffffffffffffffffffff1673ffffffffffffffffffffffffffffffffffffffff1681526020019081526020016000206000828254610a5391906133b2565b925050819055508060046000828254610a6c91906133b2565b92505081905550610a7b6121c9565b3373ffffffffffffffffffffffffffffffffffffffff167f106f923f993c2149d49b4255ff723acafa1f2d94393f561d3eda32ae348f724183604051610ac19190612ce6565b60405180910390a23373ffffffffffffffffffffffffffffffffffffffff167f64b83944e79c3ce8d4c297411de637c3e102d064677aac0c163976ebdcd6f50e838584604051610b13939291906133e6565b60405180910390a25050610b2561234a565b50565b600381565b60008060045403610b415760009050610c4d565b6000600454600954600660008673ffffffffffffffffffffffffffffffffffffffff1673ffffffffffffffffffffffffffffffffffffffff16815260200190815260200160002054610b9391906132a4565b610b9d9190613315565b90506000600760008573ffffffffffffffffffffffffffffffffffffffff1673ffffffffffffffffffffffffffffffffffffffff168152602001908152602001600020549050808211610bf1576000610bfe565b8082610bfd919061341d565b5b600860008673ffffffffffffffffffffffffffffffffffffffff1673ffffffffffffffffffffffffffffffffffffffff16815260200190815260200160002054610c4891906133b2565b925050505b919050565b610c5a611f7e565b610c6333611fd5565b6000600860003373ffffffffffffffffffffffffffffffffffffffff1673ffffffffffffffffffffffffffffffffffffffff16815260200190815260200160002054905060008111610cea576040517f08c379a0000000000000000000000000000000000000000000000000000000008152600401610ce1906131b9565b60405180910390fd5b6000600860003373ffffffffffffffffffffffffffffffffffffffff1673ffffffffffffffffffffffffffffffffffffffff1681526020019081526020016000208190555060008054906101000a900473ffffffffffffffffffffffffffffffffffffffff1673ffffffffffffffffffffffffffffffffffffffff1663a9059cbb33836040518363ffffffff1660e01b8152600401610d8a929190613451565b6020604051808303816000875af1158015610da9573d6000803e3d6000fd5b505050506040513d601f19601f82011682018060405250810190610dcd9190613248565b503373ffffffffffffffffffffffffffffffffffffffff167f106f923f993c2149d49b4255ff723acafa1f2d94393f561d3eda32ae348f724182604051610e149190612ce6565b60405180910390a250610e2561234a565b565b600560009054906101000a900473ffffffffffffffffffffffffffffffffffffffff1681565b60076020528060005260406000206000915090505481565b610e6d612363565b610e7682612449565b610e808282612454565b5050565b6000610e8e612573565b7f360894a13ba1a3210667c828492db98dca3e2076cc3735a920a3ca505d382bbc60001b905090565b600160009054906101000a900473ffffffffffffffffffffffffffffffffffffffff1681565b6000600b54905090565b610eef6125fa565b610ef96000612681565b565b600080610f06612758565b90508060000160009054906101000a900473ffffffffffffffffffffffffffffffffffffffff1691505090565b6000600354600254610f4591906133b2565b905090565b60066020528060005260406000206000915090505481565b610f6a611f7e565b600081118015610fb95750600660003373ffffffffffffffffffffffffffffffffffffffff1673ffffffffffffffffffffffffffffffffffffffff168152602001908152602001600020548111155b610ff8576040517f08c379a0000000000000000000000000000000000000000000000000000000008152600401610fef906134c6565b60405180910390fd5b61100133611fd5565b60006004546002548361101491906132a4565b61101e9190613315565b905060006004546003548461103391906132a4565b61103d9190613315565b905082600660003373ffffffffffffffffffffffffffffffffffffffff1673ffffffffffffffffffffffffffffffffffffffff168152602001908152602001600020600082825461108e919061341d565b9250508190555082600460008282546110a7919061341d565b9250508190555060008054906101000a900473ffffffffffffffffffffffffffffffffffffffff1673ffffffffffffffffffffffffffffffffffffffff1663a9059cbb33846040518363ffffffff1660e01b8152600401611109929190613451565b6020604051808303816000875af1158015611128573d6000803e3d6000fd5b505050506040513d601f19601f8201168201806040525081019061114c9190613248565b50600160009054906101000a900473ffffffffffffffffffffffffffffffffffffffff1673ffffffffffffffffffffffffffffffffffffffff1663a9059cbb33836040518363ffffffff1660e01b81526004016111aa929190613451565b6020604051808303816000875af11580156111c9573d6000803e3d6000fd5b505050506040513d601f19601f820116820180604052508101906111ed9190613248565b506111f66121c9565b3373ffffffffffffffffffffffffffffffffffffffff167f1dc8bb69df2b8e91fbdcbfcf93d951b3f0000f085a95fe3f7946d6161439245d838386604051611240939291906133e6565b60405180910390a2505061125261234a565b50565b61125d611f7e565b60008211801561126d5750600081115b6112ac576040517f08c379a00000000000000000000000000000000000000000000000000000000081526004016112a390613532565b60405180910390fd5b60008054906101000a900473ffffffffffffffffffffffffffffffffffffffff1673ffffffffffffffffffffffffffffffffffffffff166323b872dd3330856040518463ffffffff1660e01b8152600401611309939291906131d9565b6020604051808303816000875af1158015611328573d6000803e3d6000fd5b505050506040513d601f19601f8201168201806040525081019061134c9190613248565b50600160009054906101000a900473ffffffffffffffffffffffffffffffffffffffff1673ffffffffffffffffffffffffffffffffffffffff166323b872dd3330846040518463ffffffff1660e01b81526004016113ac939291906131d9565b6020604051808303816000875af11580156113cb573d6000803e3d6000fd5b505050506040513d601f19601f820116820180604052508101906113ef9190613248565b506000806004541461143e576114396002546004548561140f91906132a4565b6114199190613315565b6003546004548561142a91906132a4565b6114349190613315565b6121b0565b611453565b611452828461144d91906132a4565b612136565b5b905060008111611498576040517f08c379a000000000000000000000000000000000000000000000000000000000815260040161148f90613392565b60405180910390fd5b6114a133611fd5565b80600660003373ffffffffffffffffffffffffffffffffffffffff1673ffffffffffffffffffffffffffffffffffffffff16815260200190815260200160002060008282546114f091906133b2565b92505081905550806004600082825461150991906133b2565b925050819055506115186121c9565b3373ffffffffffffffffffffffffffffffffffffffff167f64b83944e79c3ce8d4c297411de637c3e102d064677aac0c163976ebdcd6f50e848484604051611562939291906133e6565b60405180910390a25061157361234a565b5050565b6040518060400160405280600581526020017f352e302e3000000000000000000000000000000000000000000000000000000081525081565b60006115ba612780565b905060008160000160089054906101000a900460ff1615905060008260000160009054906101000a900467ffffffffffffffff1690506000808267ffffffffffffffff161480156116085750825b9050600060018367ffffffffffffffff1614801561163d575060003073ffffffffffffffffffffffffffffffffffffffff163b145b90508115801561164b575080155b15611682576040517ff92ee8a900000000000000000000000000000000000000000000000000000000815260040160405180910390fd5b60018560000160006101000a81548167ffffffffffffffff021916908367ffffffffffffffff16021790555083156116d25760018560000160086101000a81548160ff0219169083151502179055505b8673ffffffffffffffffffffffffffffffffffffffff168873ffffffffffffffffffffffffffffffffffffffff1603611740576040517f08c379a00000000000000000000000000000000000000000000000000000000081526004016117379061359e565b60405180910390fd5b600073ffffffffffffffffffffffffffffffffffffffff168873ffffffffffffffffffffffffffffffffffffffff16141580156117aa5750600073ffffffffffffffffffffffffffffffffffffffff168773ffffffffffffffffffffffffffffffffffffffff1614155b6117e9576040517f08c379a00000000000000000000000000000000000000000000000000000000081526004016117e09061360a565b60405180910390fd5b6117f286612794565b6117fa6127a8565b6118026127ba565b876000806101000a81548173ffffffffffffffffffffffffffffffffffffffff021916908373ffffffffffffffffffffffffffffffffffffffff16021790555086600160006101000a81548173ffffffffffffffffffffffffffffffffffffffff021916908373ffffffffffffffffffffffffffffffffffffffff16021790555085600560006101000a81548173ffffffffffffffffffffffffffffffffffffffff021916908373ffffffffffffffffffffffffffffffffffffffff16021790555083156119205760008560000160086101000a81548160ff0219169083151502179055507fc7f505b2f371ae2175ee4913f4499e1f2633a7b5936321eed1cdaeb6115181d260016040516119179190613683565b60405180910390a15b5050505050505050565b600080600454148061194b5750600060035460025461194991906133b2565b145b1561195957600090506119b8565b600061016d6103e86003600b5461197091906132a4565b61197a9190613315565b61198491906132a4565b9050600060035460025461199891906133b2565b905080612710836119a991906132a4565b6119b39190613315565b925050505b90565b60045481565b6000600660008373ffffffffffffffffffffffffffffffffffffffff1673ffffffffffffffffffffffffffffffffffffffff168152602001908152602001600020549050919050565b611a12611f7e565b60008211611a55576040517f08c379a0000000000000000000000000000000000000000000000000000000008152600401611a4c906136ea565b60405180910390fd5b60008054906101000a900473ffffffffffffffffffffffffffffffffffffffff1673ffffffffffffffffffffffffffffffffffffffff168173ffffffffffffffffffffffffffffffffffffffff161480611afc5750600160009054906101000a900473ffffffffffffffffffffffffffffffffffffffff1673ffffffffffffffffffffffffffffffffffffffff168173ffffffffffffffffffffffffffffffffffffffff16145b611b3b576040517f08c379a0000000000000000000000000000000000000000000000000000000008152600401611b3290613756565b60405180910390fd5b60008060009054906101000a900473ffffffffffffffffffffffffffffffffffffffff1673ffffffffffffffffffffffffffffffffffffffff168273ffffffffffffffffffffffffffffffffffffffff1614611bb75760008054906101000a900473ffffffffffffffffffffffffffffffffffffffff16611bdb565b600160009054906101000a900473ffffffffffffffffffffffffffffffffffffffff165b90506000611be98484611e21565b905060008111611c2e576040517f08c379a0000000000000000000000000000000000000000000000000000000008152600401611c25906137c2565b60405180910390fd5b8273ffffffffffffffffffffffffffffffffffffffff166323b872dd3330876040518463ffffffff1660e01b8152600401611c6b939291906131d9565b6020604051808303816000875af1158015611c8a573d6000803e3d6000fd5b505050506040513d601f19601f82011682018060405250810190611cae9190613248565b5060006103e8600386611cc191906132a4565b611ccb9190613315565b90508060096000828254611cdf91906133b2565b925050819055508273ffffffffffffffffffffffffffffffffffffffff1663a9059cbb33846040518363ffffffff1660e01b8152600401611d21929190613451565b6020604051808303816000875af1158015611d40573d6000803e3d6000fd5b505050506040513d601f19601f82011682018060405250810190611d649190613248565b50611d6d6121c9565b611d76856127c4565b8273ffffffffffffffffffffffffffffffffffffffff168473ffffffffffffffffffffffffffffffffffffffff163373ffffffffffffffffffffffffffffffffffffffff167f6782190c91d4a7e8ad2a867deed6ec0a970cab8ff137ae2bd4abd92b3810f4d38886604051611dec929190612cbd565b60405180910390a4505050611dff61234a565b5050565b60086020528060005260406000206000915090505481565b60025481565b60008060008054906101000a900473ffffffffffffffffffffffffffffffffffffffff1673ffffffffffffffffffffffffffffffffffffffff168373ffffffffffffffffffffffffffffffffffffffff1614905060008082611e8857600354600254611e8f565b6002546003545b91509150600060036103e8611ea4919061341d565b87611eaf91906132a4565b905060008282611ebf91906132a4565b90506000826103e886611ed291906132a4565b611edc91906133b2565b90508082611eea9190613315565b965050505050505092915050565b611f006125fa565b600073ffffffffffffffffffffffffffffffffffffffff168173ffffffffffffffffffffffffffffffffffffffff1603611f725760006040517f1e4fbdf7000000000000000000000000000000000000000000000000000000008152600401611f699190612d42565b60405180910390fd5b611f7b81612681565b50565b6000611f8861280c565b90506002816000015403611fc8576040517f3ee5aeb500000000000000000000000000000000000000000000000000000000815260040160405180910390fd5b6002816000018190555050565b60006004540315612133576000600454600954600660008573ffffffffffffffffffffffffffffffffffffffff1673ffffffffffffffffffffffffffffffffffffffff1681526020019081526020016000205461203291906132a4565b61203c9190613315565b90506000600760008473ffffffffffffffffffffffffffffffffffffffff1673ffffffffffffffffffffffffffffffffffffffff168152602001908152602001600020549050808211156120ec578082612096919061341d565b600860008573ffffffffffffffffffffffffffffffffffffffff1673ffffffffffffffffffffffffffffffffffffffff16815260200190815260200160002060008282546120e491906133b2565b925050819055505b81600760008573ffffffffffffffffffffffffffffffffffffffff1673ffffffffffffffffffffffffffffffffffffffff1681526020019081526020016000208190555050505b50565b6000600382111561219d57819050600060016002846121559190613315565b61215f91906133b2565b90505b8181101561219757809150600281828561217c9190613315565b61218691906133b2565b6121909190613315565b9050612162565b506121ab565b600082146121aa57600190505b5b919050565b60008183106121bf57816121c1565b825b905092915050565b60008054906101000a900473ffffffffffffffffffffffffffffffffffffffff1673ffffffffffffffffffffffffffffffffffffffff166370a08231306040518263ffffffff1660e01b81526004016122229190612d42565b602060405180830381865afa15801561223f573d6000803e3d6000fd5b505050506040513d601f19601f8201168201806040525081019061226391906137f7565b600281905550600160009054906101000a900473ffffffffffffffffffffffffffffffffffffffff1673ffffffffffffffffffffffffffffffffffffffff166370a08231306040518263ffffffff1660e01b81526004016122c49190612d42565b602060405180830381865afa1580156122e1573d6000803e3d6000fd5b505050506040513d601f19601f8201168201806040525081019061230591906137f7565b6003819055507fd6e74d43cd1c8c6b2d29be11f4977cc5e9c713288fddb50f44d82fd5e34b9119600254600354604051612340929190612cbd565b60405180910390a1565b600061235461280c565b90506001816000018190555050565b7f000000000000000000000000000000000000000000000000000000000000000073ffffffffffffffffffffffffffffffffffffffff163073ffffffffffffffffffffffffffffffffffffffff16148061241057507f000000000000000000000000000000000000000000000000000000000000000073ffffffffffffffffffffffffffffffffffffffff166123f7612834565b73ffffffffffffffffffffffffffffffffffffffff1614155b15612447576040517fe07c8dba00000000000000000000000000000000000000000000000000000000815260040160405180910390fd5b565b6124516125fa565b50565b8173ffffffffffffffffffffffffffffffffffffffff166352d1902d6040518163ffffffff1660e01b8152600401602060405180830381865afa9250505080156124bc57506040513d601f19601f820116820180604052508101906124b99190613850565b60015b6124fd57816040517f4c9c8ce30000000000000000000000000000000000000000000000000000000081526004016124f49190612d42565b60405180910390fd5b7f360894a13ba1a3210667c828492db98dca3e2076cc3735a920a3ca505d382bbc60001b811461256457806040517faa1d49a400000000000000000000000000000000000000000000000000000000815260040161255b9190612fde565b60405180910390fd5b61256e838361288b565b505050565b7f000000000000000000000000000000000000000000000000000000000000000073ffffffffffffffffffffffffffffffffffffffff163073ffffffffffffffffffffffffffffffffffffffff16146125f8576040517fe07c8dba00000000000000000000000000000000000000000000000000000000815260040160405180910390fd5b565b6126026128fe565b73ffffffffffffffffffffffffffffffffffffffff16612620610efb565b73ffffffffffffffffffffffffffffffffffffffff161461267f576126436128fe565b6040517f118cdaa70000000000000000000000000000000000000000000000000000000081526004016126769190612d42565b60405180910390fd5b565b600061268b612758565b905060008160000160009054906101000a900473ffffffffffffffffffffffffffffffffffffffff169050828260000160006101000a81548173ffffffffffffffffffffffffffffffffffffffff021916908373ffffffffffffffffffffffffffffffffffffffff1602179055508273ffffffffffffffffffffffffffffffffffffffff168173ffffffffffffffffffffffffffffffffffffffff167f8be0079c531659141344cd1fd0a4f28419497f9722a3daafe3b4186f6b6457e060405160405180910390a3505050565b60007f9016d09d72d40fdae2fd8ceac6b6234c7706214fd39c1cd1e609a0528c199300905090565b60008061278b612906565b90508091505090565b61279c612931565b6127a581612971565b50565b6127b0612931565b6127b86129f7565b565b6127c2612931565b565b62015180600a54426127d6919061341d565b11156127ef5780600b8190555042600a81905550612809565b80600b600082825461280191906133b2565b925050819055505b50565b60007f9b779b17422d0df92223018b32b4d1fa46e071723d6817e2486d003becc55f00905090565b60006128627f360894a13ba1a3210667c828492db98dca3e2076cc3735a920a3ca505d382bbc60001b612a18565b60000160009054906101000a900473ffffffffffffffffffffffffffffffffffffffff16905090565b61289482612a22565b8173ffffffffffffffffffffffffffffffffffffffff167fbc7cd75a20ee27fd9adebab32041f755214dbc6bffa90cc0225b39da2e5c2d3b60405160405180910390a26000815111156128f1576128eb8282612aef565b506128fa565b6128f9612b73565b5b5050565b600033905090565b60007ff0c57e16840df040f15088dc2f81fe391c3923bec73e23a9662efc9c229c6a0060001b905090565b612939612bb0565b61296f576040517fd7e6bcf800000000000000000000000000000000000000000000000000000000815260040160405180910390fd5b565b612979612931565b600073ffffffffffffffffffffffffffffffffffffffff168173ffffffffffffffffffffffffffffffffffffffff16036129eb5760006040517f1e4fbdf70000000000000000000000000000000000000000000000000000000081526004016129e29190612d42565b60405180910390fd5b6129f481612681565b50565b6129ff612931565b6000612a0961280c565b90506001816000018190555050565b6000819050919050565b60008173ffffffffffffffffffffffffffffffffffffffff163b03612a7e57806040517f4c9c8ce3000000000000000000000000000000000000000000000000000000008152600401612a759190612d42565b60405180910390fd5b80612aab7f360894a13ba1a3210667c828492db98dca3e2076cc3735a920a3ca505d382bbc60001b612a18565b60000160006101000a81548173ffffffffffffffffffffffffffffffffffffffff021916908373ffffffffffffffffffffffffffffffffffffffff16021790555050565b60606000808473ffffffffffffffffffffffffffffffffffffffff1684604051612b1991906138c4565b600060405180830381855af49150503d8060008114612b54576040519150601f19603f3d011682016040523d82523d6000602084013e612b59565b606091505b5091509150612b69858383612bd0565b9250505092915050565b6000341115612bae576040517fb398979f00000000000000000000000000000000000000000000000000000000815260040160405180910390fd5b565b6000612bba612780565b60000160089054906101000a900460ff16905090565b606082612be557612be082612c5f565b612c57565b60008251148015612c0d575060008473ffffffffffffffffffffffffffffffffffffffff163b145b15612c4f57836040517f9996b315000000000000000000000000000000000000000000000000000000008152600401612c469190612d42565b60405180910390fd5b819050612c58565b5b9392505050565b600081511115612c725780518082602001fd5b6040517fd6bda27500000000000000000000000000000000000000000000000000000000815260040160405180910390fd5b6000819050919050565b612cb781612ca4565b82525050565b6000604082019050612cd26000830185612cae565b612cdf6020830184612cae565b9392505050565b6000602082019050612cfb6000830184612cae565b92915050565b600073ffffffffffffffffffffffffffffffffffffffff82169050919050565b6000612d2c82612d01565b9050919050565b612d3c81612d21565b82525050565b6000602082019050612d576000830184612d33565b92915050565b6000604051905090565b600080fd5b600080fd5b612d7a81612ca4565b8114612d8557600080fd5b50565b600081359050612d9781612d71565b92915050565b600060208284031215612db357612db2612d67565b5b6000612dc184828501612d88565b91505092915050565b612dd381612d21565b8114612dde57600080fd5b50565b600081359050612df081612dca565b92915050565b600060208284031215612e0c57612e0b612d67565b5b6000612e1a84828501612de1565b91505092915050565b600080fd5b600080fd5b6000601f19601f8301169050919050565b7f4e487b7100000000000000000000000000000000000000000000000000000000600052604160045260246000fd5b612e7682612e2d565b810181811067ffffffffffffffff82111715612e9557612e94612e3e565b5b80604052505050565b6000612ea8612d5d565b9050612eb48282612e6d565b919050565b600067ffffffffffffffff821115612ed457612ed3612e3e565b5b612edd82612e2d565b9050602081019050919050565b82818337600083830152505050565b6000612f0c612f0784612eb9565b612e9e565b905082815260208101848484011115612f2857612f27612e28565b5b612f33848285612eea565b509392505050565b600082601f830112612f5057612f4f612e23565b5b8135612f60848260208601612ef9565b91505092915050565b60008060408385031215612f8057612f7f612d67565b5b6000612f8e85828601612de1565b925050602083013567ffffffffffffffff811115612faf57612fae612d6c565b5b612fbb85828601612f3b565b9150509250929050565b6000819050919050565b612fd881612fc5565b82525050565b6000602082019050612ff36000830184612fcf565b92915050565b600080604083850312156130105761300f612d67565b5b600061301e85828601612d88565b925050602061302f85828601612d88565b9150509250929050565b600081519050919050565b600082825260208201905092915050565b60005b83811015613073578082015181840152602081019050613058565b60008484015250505050565b600061308a82613039565b6130948185613044565b93506130a4818560208601613055565b6130ad81612e2d565b840191505092915050565b600060208201905081810360008301526130d2818461307f565b905092915050565b6000806000606084860312156130f3576130f2612d67565b5b600061310186828701612de1565b935050602061311286828701612de1565b925050604061312386828701612de1565b9150509250925092565b6000806040838503121561314457613143612d67565b5b600061315285828601612d88565b925050602061316385828601612de1565b9150509250929050565b7f4e6f207265776172647300000000000000000000000000000000000000000000600082015250565b60006131a3600a83613044565b91506131ae8261316d565b602082019050919050565b600060208201905081810360008301526131d281613196565b9050919050565b60006060820190506131ee6000830186612d33565b6131fb6020830185612d33565b6132086040830184612cae565b949350505050565b60008115159050919050565b61322581613210565b811461323057600080fd5b50565b6000815190506132428161321c565b92915050565b60006020828403121561325e5761325d612d67565b5b600061326c84828501613233565b91505092915050565b7f4e487b7100000000000000000000000000000000000000000000000000000000600052601160045260246000fd5b60006132af82612ca4565b91506132ba83612ca4565b92508282026132c881612ca4565b915082820484148315176132df576132de613275565b5b5092915050565b7f4e487b7100000000000000000000000000000000000000000000000000000000600052601260045260246000fd5b600061332082612ca4565b915061332b83612ca4565b92508261333b5761333a6132e6565b5b828204905092915050565b7f5a65726f204c50206d696e746564000000000000000000000000000000000000600082015250565b600061337c600e83613044565b915061338782613346565b602082019050919050565b600060208201905081810360008301526133ab8161336f565b9050919050565b60006133bd82612ca4565b91506133c883612ca4565b92508282019050808211156133e0576133df613275565b5b92915050565b60006060820190506133fb6000830186612cae565b6134086020830185612cae565b6134156040830184612cae565b949350505050565b600061342882612ca4565b915061343383612ca4565b925082820390508181111561344b5761344a613275565b5b92915050565b60006040820190506134666000830185612d33565b6134736020830184612cae565b9392505050565b7f496e76616c6964204c5020616d6f756e74000000000000000000000000000000600082015250565b60006134b0601183613044565b91506134bb8261347a565b602082019050919050565b600060208201905081810360008301526134df816134a3565b9050919050565b7f496e76616c696420696e70757400000000000000000000000000000000000000600082015250565b600061351c600d83613044565b9150613527826134e6565b602082019050919050565b6000602082019050818103600083015261354b8161350f565b9050919050565b7f4964656e746963616c2061646472657373657300000000000000000000000000600082015250565b6000613588601383613044565b915061359382613552565b602082019050919050565b600060208201905081810360008301526135b78161357b565b9050919050565b7f5a65726f20616464726573730000000000000000000000000000000000000000600082015250565b60006135f4600c83613044565b91506135ff826135be565b602082019050919050565b60006020820190508181036000830152613623816135e7565b9050919050565b6000819050919050565b600067ffffffffffffffff82169050919050565b6000819050919050565b600061366d6136686136638461362a565b613648565b613634565b9050919050565b61367d81613652565b82525050565b60006020820190506136986000830184613674565b92915050565b7f5a65726f20696e70757400000000000000000000000000000000000000000000600082015250565b60006136d4600a83613044565b91506136df8261369e565b602082019050919050565b60006020820190508181036000830152613703816136c7565b9050919050565b7f496e76616c696420696e70757420746f6b656e00000000000000000000000000600082015250565b6000613740601383613044565b915061374b8261370a565b602082019050919050565b6000602082019050818103600083015261376f81613733565b9050919050565b7f5a65726f206f7574707574000000000000000000000000000000000000000000600082015250565b60006137ac600b83613044565b91506137b782613776565b602082019050919050565b600060208201905081810360008301526137db8161379f565b9050919050565b6000815190506137f181612d71565b92915050565b60006020828403121561380d5761380c612d67565b5b600061381b848285016137e2565b91505092915050565b61382d81612fc5565b811461383857600080fd5b50565b60008151905061384a81613824565b92915050565b60006020828403121561386657613865612d67565b5b60006138748482850161383b565b91505092915050565b600081519050919050565b600081905092915050565b600061389e8261387d565b6138a88185613888565b93506138b8818560208601613055565b80840191505092915050565b60006138d08284613893565b91508190509291505056fea264697066735822122007de09f1479c60ce848ec93ac09ff2397427673dc84d8e4c381d724a401ea66464736f6c63430008160033",
  "linkReferences": {},
  "deployedLinkReferences": {}
}