{
  "_format": "hh-sol-artifact-1",
  "contractName": "MiniDexFactoryUpgradeable",
  "sourceName": "contracts/MiniDexFactoryUpgradeable.sol",
  "abi": [
    {
      "inputs": [
        {
          "internalType": "address",
          "name": "target",
          "type": "address"
        }
      ],
      "name": "AddressEmptyCode",
      "type": "error"
    },
    {
      "inputs": [
        {
          "internalType": "address",
          "name": "implementation",
          "type": "address"
        }
      ],
      "name": "ERC1967InvalidImplementation",
      "type": "error"
    },
    {
      "inputs": [],
      "name": "ERC1967NonPayable",
      "type": "error"
    },
    {
      "inputs": [],
      "name": "FailedCall",
      "type": "error"
    },
    {
      "inputs": [],
      "name": "InvalidInitialization",
      "type": "error"
    },
    {
      "inputs": [],
      "name": "NotInitializing",
      "type": "error"
    },
    {
      "inputs": [
        {
          "internalType": "address",
          "name": "owner",
          "type": "address"
        }
      ],
      "name": "OwnableInvalidOwner",
      "type": "error"
    },
    {
      "inputs": [
        {
          "internalType": "address",
          "name": "account",
          "type": "address"
        }
      ],
      "name": "OwnableUnauthorizedAccount",
      "type": "error"
    },
    {
      "inputs": [],
      "name": "UUPSUnauthorizedCallContext",
      "type": "error"
    },
    {
      "inputs": [
        {
          "internalType": "bytes32",
          "name": "slot",
          "type": "bytes32"
        }
      ],
      "name": "UUPSUnsupportedProxiableUUID",
      "type": "error"
    },
    {
      "anonymous": false,
      "inputs": [
        {
          "indexed": false,
          "internalType": "uint64",
          "name": "version",
          "type": "uint64"
        }
      ],
      "name": "Initialized",
      "type": "event"
    },
    {
      "anonymous": false,
      "inputs": [
        {
          "indexed": true,
          "internalType": "address",
          "name": "previousOwner",
          "type": "address"
        },
        {
          "indexed": true,
          "internalType": "address",
          "name": "newOwner",
          "type": "address"
        }
      ],
      "name": "OwnershipTransferred",
      "type": "event"
    },
    {
      "anonymous": false,
      "inputs": [
        {
          "indexed": true,
          "internalType": "address",
          "name": "tokenA",
          "type": "address"
        },
        {
          "indexed": true,
          "internalType": "address",
          "name": "tokenB",
          "type": "address"
        },
        {
          "indexed": false,
          "internalType": "address",
          "name": "pairAddress",
          "type": "address"
        },
        {
          "indexed": false,
          "internalType": "uint256",
          "name": "index",
          "type": "uint256"
        }
      ],
      "name": "PairCreated",
      "type": "event"
    },
    {
      "anonymous": false,
      "inputs": [
        {
          "indexed": true,
          "internalType": "address",
          "name": "user",
          "type": "address"
        },
        {
          "indexed": false,
          "internalType": "uint256",
          "name": "newScore",
          "type": "uint256"
        }
      ],
      "name": "ReputationUpdated",
      "type": "event"
    },
    {
      "anonymous": false,
      "inputs": [
        {
          "indexed": true,
          "internalType": "address",
          "name": "implementation",
          "type": "address"
        }
      ],
      "name": "Upgraded",
      "type": "event"
    },
    {
      "inputs": [],
      "name": "UPGRADE_INTERFACE_VERSION",
      "outputs": [
        {
          "internalType": "string",
          "name": "",
          "type": "string"
        }
      ],
      "stateMutability": "view",
      "type": "function"
    },
    {
      "inputs": [
        {
          "internalType": "uint256",
          "name": "",
          "type": "uint256"
        }
      ],
      "name": "allPairs",
      "outputs": [
        {
          "internalType": "address",
          "name": "",
          "type": "address"
        }
      ],
      "stateMutability": "view",
      "type": "function"
    },
    {
      "inputs": [],
      "name": "allPairsLength",
      "outputs": [
        {
          "internalType": "uint256",
          "name": "",
          "type": "uint256"
        }
      ],
      "stateMutability": "view",
      "type": "function"
    },
    {
      "inputs": [
        {
          "internalType": "address",
          "name": "tokenA",
          "type": "address"
        },
        {
          "internalType": "address",
          "name": "tokenB",
          "type": "address"
        }
      ],
      "name": "createPair",
      "outputs": [
        {
          "internalType": "address",
          "name": "pair",
          "type": "address"
        }
      ],
      "stateMutability": "nonpayable",
      "type": "function"
    },
    {
      "inputs": [
        {
          "internalType": "address",
          "name": "",
          "type": "address"
        },
        {
          "internalType": "address",
          "name": "",
          "type": "address"
        }
      ],
      "name": "getPair",
      "outputs": [
        {
          "internalType": "address",
          "name": "",
          "type": "address"
        }
      ],
      "stateMutability": "view",
      "type": "function"
    },
    {
      "inputs": [
        {
          "internalType": "uint256",
          "name": "index",
          "type": "uint256"
        }
      ],
      "name": "getPairAtIndex",
      "outputs": [
        {
          "internalType": "address",
          "name": "",
          "type": "address"
        }
      ],
      "stateMutability": "view",
      "type": "function"
    },
    {
      "inputs": [
        {
          "internalType": "address",
          "name": "_pairImplementation",
          "type": "address"
        },
        {
          "internalType": "address",
          "name": "_owner",
          "type": "address"
        }
      ],
      "name": "initialize",
      "outputs": [],
      "stateMutability": "nonpayable",
      "type": "function"
    },
    {
      "inputs": [
        {
          "internalType": "address",
          "name": "",
          "type": "address"
        }
      ],
      "name": "isTrustedUpdater",
      "outputs": [
        {
          "internalType": "bool",
          "name": "",
          "type": "bool"
        }
      ],
      "stateMutability": "view",
      "type": "function"
    },
    {
      "inputs": [],
      "name": "owner",
      "outputs": [
        {
          "internalType": "address",
          "name": "",
          "type": "address"
        }
      ],
      "stateMutability": "view",
      "type": "function"
    },
    {
      "inputs": [],
      "name": "pairImplementation",
      "outputs": [
        {
          "internalType": "address",
          "name": "",
          "type": "address"
        }
      ],
      "stateMutability": "view",
      "type": "function"
    },
    {
      "inputs": [],
      "name": "proxiableUUID",
      "outputs": [
        {
          "internalType": "bytes32",
          "name": "",
          "type": "bytes32"
        }
      ],
      "stateMutability": "view",
      "type": "function"
    },
    {
      "inputs": [],
      "name": "renounceOwnership",
      "outputs": [],
      "stateMutability": "nonpayable",
      "type": "function"
    },
    {
      "inputs": [
        {
          "internalType": "address",
          "name": "",
          "type": "address"
        }
      ],
      "name": "reputationScores",
      "outputs": [
        {
          "internalType": "uint256",
          "name": "",
          "type": "uint256"
        }
      ],
      "stateMutability": "view",
      "type": "function"
    },
    {
      "inputs": [
        {
          "internalType": "address",
          "name": "updater",
          "type": "address"
        },
        {
          "internalType": "bool",
          "name": "status",
          "type": "bool"
        }
      ],
      "name": "setTrustedUpdater",
      "outputs": [],
      "stateMutability": "nonpayable",
      "type": "function"
    },
    {
      "inputs": [
        {
          "internalType": "address",
          "name": "newOwner",
          "type": "address"
        }
      ],
      "name": "transferOwnership",
      "outputs": [],
      "stateMutability": "nonpayable",
      "type": "function"
    },
    {
      "inputs": [
        {
          "internalType": "address",
          "name": "user",
          "type": "address"
        },
        {
          "internalType": "uint256",
          "name": "score",
          "type": "uint256"
        }
      ],
      "name": "updateReputation",
      "outputs": [],
      "stateMutability": "nonpayable",
      "type": "function"
    },
    {
      "inputs": [
        {
          "internalType": "address",
          "name": "newImplementation",
          "type": "address"
        },
        {
          "internalType": "bytes",
          "name": "data",
          "type": "bytes"
        }
      ],
      "name": "upgradeToAndCall",
      "outputs": [],
      "stateMutability": "payable",
      "type": "function"
    },
    {
      "inputs": [],
      "name": "version",
      "outputs": [
        {
          "internalType": "string",
          "name": "",
          "type": "string"
        }
      ],
      "stateMutability": "pure",
      "type": "function"
    }
  ],
  "bytecode": "0x60a06040523073ffffffffffffffffffffffffffffffffffffffff1660809073ffffffffffffffffffffffffffffffffffffffff1681525034801561004357600080fd5b50608051612bb561006d6000396000818161116e015281816111c4015261138f0152612bb56000f3fe608060405260043610620001225760003560e01c806371f3c59611620000a3578063e6a43905116200006d578063e6a4390514620003bf578063f2fde38b1462000403578063f5c91a081462000431578063fe0438b2146200045f578063fe39b8e414620004a35762000122565b806371f3c59614620002eb5780638da5cb5b146200031b578063ad3cb1cc146200034b578063c9c65396146200037b5762000122565b806352d1902d11620000f157806352d1902d14620001fd57806354fd4d50146200022d578063574f2ba3146200025d5780636a4e8b39146200028d578063715018a614620002d15762000122565b80631e3dd18b1462000127578063485cc955146200016b5780634d0046d514620001995780634f1ef28614620001dd575b600080fd5b3480156200013457600080fd5b506200015360048036038101906200014d919062001a7e565b620004d1565b60405162000162919062001af5565b60405180910390f35b3480156200017857600080fd5b5062000197600480360381019062000191919062001b43565b62000511565b005b348015620001a657600080fd5b50620001c56004803603810190620001bf919062001b8a565b620006f7565b604051620001d4919062001bd9565b60405180910390f35b620001fb6004803603810190620001f5919062001d58565b62000717565b005b3480156200020a57600080fd5b50620002156200073c565b60405162000224919062001dd9565b60405180910390f35b3480156200023a57600080fd5b506200024562000771565b60405162000254919062001e7f565b60405180910390f35b3480156200026a57600080fd5b5062000275620007ae565b60405162000284919062001eb4565b60405180910390f35b3480156200029a57600080fd5b50620002b96004803603810190620002b3919062001a7e565b620007bb565b604051620002c8919062001af5565b60405180910390f35b348015620002de57600080fd5b50620002e962000850565b005b348015620002f857600080fd5b506200030362000868565b60405162000312919062001af5565b60405180910390f35b3480156200032857600080fd5b50620003336200088c565b60405162000342919062001af5565b60405180910390f35b3480156200035857600080fd5b5062000363620008c6565b60405162000372919062001e7f565b60405180910390f35b3480156200038857600080fd5b50620003a76004803603810190620003a1919062001b43565b620008ff565b604051620003b6919062001af5565b60405180910390f35b348015620003cc57600080fd5b50620003eb6004803603810190620003e5919062001b43565b62000ebf565b604051620003fa919062001af5565b60405180910390f35b3480156200041057600080fd5b506200042f600480360381019062000429919062001b8a565b62000f01565b005b3480156200043e57600080fd5b506200045d600480360381019062000457919062001ed1565b62000f8e565b005b3480156200046c57600080fd5b506200048b600480360381019062000485919062001b8a565b620010b5565b6040516200049a919062001eb4565b60405180910390f35b348015620004b057600080fd5b50620004cf6004803603810190620004c9919062001f49565b620010cd565b005b60028181548110620004e257600080fd5b906000526020600020016000915054906101000a900473ffffffffffffffffffffffffffffffffffffffff1681565b60006200051d62001132565b905060008160000160089054906101000a900460ff1615905060008260000160009054906101000a900467ffffffffffffffff1690506000808267ffffffffffffffff161480156200056c5750825b9050600060018367ffffffffffffffff16148015620005a2575060003073ffffffffffffffffffffffffffffffffffffffff163b145b905081158015620005b1575080155b15620005e9576040517ff92ee8a900000000000000000000000000000000000000000000000000000000815260040160405180910390fd5b60018560000160006101000a81548167ffffffffffffffff021916908367ffffffffffffffff16021790555083156200063a5760018560000160086101000a81548160ff0219169083151502179055505b620006458662001148565b6200064f62001160565b866000806101000a81548173ffffffffffffffffffffffffffffffffffffffff021916908373ffffffffffffffffffffffffffffffffffffffff1602179055508315620006ee5760008560000160086101000a81548160ff0219169083151502179055507fc7f505b2f371ae2175ee4913f4499e1f2633a7b5936321eed1cdaeb6115181d26001604051620006e5919062001ff1565b60405180910390a15b50505050505050565b60046020528060005260406000206000915054906101000a900460ff1681565b620007216200116c565b6200072c8262001256565b62000738828262001263565b5050565b6000620007486200138d565b7f360894a13ba1a3210667c828492db98dca3e2076cc3735a920a3ca505d382bbc60001b905090565b60606040518060400160405280600281526020017f7632000000000000000000000000000000000000000000000000000000000000815250905090565b6000600280549050905090565b6000600280549050821062000807576040517f08c379a0000000000000000000000000000000000000000000000000000000008152600401620007fe906200205e565b60405180910390fd5b600282815481106200081e576200081d62002080565b5b9060005260206000200160009054906101000a900473ffffffffffffffffffffffffffffffffffffffff169050919050565b6200085a62001415565b620008666000620014a5565b565b60008054906101000a900473ffffffffffffffffffffffffffffffffffffffff1681565b600080620008996200157e565b90508060000160009054906101000a900473ffffffffffffffffffffffffffffffffffffffff1691505090565b6040518060400160405280600581526020017f352e302e3000000000000000000000000000000000000000000000000000000081525081565b60006200090b62001415565b8173ffffffffffffffffffffffffffffffffffffffff168373ffffffffffffffffffffffffffffffffffffffff16036200097c576040517f08c379a00000000000000000000000000000000000000000000000000000000081526004016200097390620020ff565b60405180910390fd5b600073ffffffffffffffffffffffffffffffffffffffff168373ffffffffffffffffffffffffffffffffffffffff1614158015620009e75750600073ffffffffffffffffffffffffffffffffffffffff168273ffffffffffffffffffffffffffffffffffffffff1614155b62000a29576040517f08c379a000000000000000000000000000000000000000000000000000000000815260040162000a209062002171565b60405180910390fd5b600073ffffffffffffffffffffffffffffffffffffffff16600160008573ffffffffffffffffffffffffffffffffffffffff1673ffffffffffffffffffffffffffffffffffffffff16815260200190815260200160002060008473ffffffffffffffffffffffffffffffffffffffff1673ffffffffffffffffffffffffffffffffffffffff16815260200190815260200160002060009054906101000a900473ffffffffffffffffffffffffffffffffffffffff1673ffffffffffffffffffffffffffffffffffffffff161462000b37576040517f08c379a000000000000000000000000000000000000000000000000000000000815260040162000b2e90620021e3565b60405180910390fd5b6000808373ffffffffffffffffffffffffffffffffffffffff168573ffffffffffffffffffffffffffffffffffffffff161062000b7657838562000b79565b84845b91509150600063c0c53b8b60e01b83833360405160240162000b9e9392919062002205565b604051602081830303815290604052907bffffffffffffffffffffffffffffffffffffffffffffffffffffffff19166020820180517bffffffffffffffffffffffffffffffffffffffffffffffffffffffff8381831617835250505050905060008060009054906101000a900473ffffffffffffffffffffffffffffffffffffffff168260405162000c309062001a21565b62000c3d9291906200229f565b604051809103906000f08015801562000c5a573d6000803e3d6000fd5b50905080945084600160008673ffffffffffffffffffffffffffffffffffffffff1673ffffffffffffffffffffffffffffffffffffffff16815260200190815260200160002060008573ffffffffffffffffffffffffffffffffffffffff1673ffffffffffffffffffffffffffffffffffffffff16815260200190815260200160002060006101000a81548173ffffffffffffffffffffffffffffffffffffffff021916908373ffffffffffffffffffffffffffffffffffffffff16021790555084600160008573ffffffffffffffffffffffffffffffffffffffff1673ffffffffffffffffffffffffffffffffffffffff16815260200190815260200160002060008673ffffffffffffffffffffffffffffffffffffffff1673ffffffffffffffffffffffffffffffffffffffff16815260200190815260200160002060006101000a81548173ffffffffffffffffffffffffffffffffffffffff021916908373ffffffffffffffffffffffffffffffffffffffff1602179055506002859080600181540180825580915050600190039060005260206000200160009091909190916101000a81548173ffffffffffffffffffffffffffffffffffffffff021916908373ffffffffffffffffffffffffffffffffffffffff1602179055508573ffffffffffffffffffffffffffffffffffffffff168773ffffffffffffffffffffffffffffffffffffffff167f0d3648bd0f6ba80134a33ba9275ac585d9d315f0ad8355cddefde31afa28d0e987600160028054905062000e9d919062002302565b60405162000ead9291906200233d565b60405180910390a35050505092915050565b60016020528160005260406000206020528060005260406000206000915091509054906101000a900473ffffffffffffffffffffffffffffffffffffffff1681565b62000f0b62001415565b600073ffffffffffffffffffffffffffffffffffffffff168173ffffffffffffffffffffffffffffffffffffffff160362000f805760006040517f1e4fbdf700000000000000000000000000000000000000000000000000000000815260040162000f77919062001af5565b60405180910390fd5b62000f8b81620014a5565b50565b600460003373ffffffffffffffffffffffffffffffffffffffff1673ffffffffffffffffffffffffffffffffffffffff16815260200190815260200160002060009054906101000a900460ff166200101d576040517f08c379a00000000000000000000000000000000000000000000000000000000081526004016200101490620023ba565b60405180910390fd5b80600360008473ffffffffffffffffffffffffffffffffffffffff1673ffffffffffffffffffffffffffffffffffffffff168152602001908152602001600020819055508173ffffffffffffffffffffffffffffffffffffffff167ffc577563f1b9a0461e24abef1e1fcc0d33d3d881f20b5df6dda59de4aae2c82182604051620010a9919062001eb4565b60405180910390a25050565b60036020528060005260406000206000915090505481565b620010d762001415565b80600460008473ffffffffffffffffffffffffffffffffffffffff1673ffffffffffffffffffffffffffffffffffffffff16815260200190815260200160002060006101000a81548160ff0219169083151502179055505050565b6000806200113f620015a6565b90508091505090565b62001152620015d1565b6200115d8162001614565b50565b6200116a620015d1565b565b7f000000000000000000000000000000000000000000000000000000000000000073ffffffffffffffffffffffffffffffffffffffff163073ffffffffffffffffffffffffffffffffffffffff1614806200121c57507f000000000000000000000000000000000000000000000000000000000000000073ffffffffffffffffffffffffffffffffffffffff1662001203620016a1565b73ffffffffffffffffffffffffffffffffffffffff1614155b1562001254576040517fe07c8dba00000000000000000000000000000000000000000000000000000000815260040160405180910390fd5b565b6200126062001415565b50565b8173ffffffffffffffffffffffffffffffffffffffff166352d1902d6040518163ffffffff1660e01b8152600401602060405180830381865afa925050508015620012ce57506040513d601f19601f82011682018060405250810190620012cb91906200240d565b60015b6200131257816040517f4c9c8ce300000000000000000000000000000000000000000000000000000000815260040162001309919062001af5565b60405180910390fd5b7f360894a13ba1a3210667c828492db98dca3e2076cc3735a920a3ca505d382bbc60001b81146200137c57806040517faa1d49a400000000000000000000000000000000000000000000000000000000815260040162001373919062001dd9565b60405180910390fd5b620013888383620016fa565b505050565b7f000000000000000000000000000000000000000000000000000000000000000073ffffffffffffffffffffffffffffffffffffffff163073ffffffffffffffffffffffffffffffffffffffff161462001413576040517fe07c8dba00000000000000000000000000000000000000000000000000000000815260040160405180910390fd5b565b6200141f62001775565b73ffffffffffffffffffffffffffffffffffffffff166200143f6200088c565b73ffffffffffffffffffffffffffffffffffffffff1614620014a3576200146562001775565b6040517f118cdaa70000000000000000000000000000000000000000000000000000000081526004016200149a919062001af5565b60405180910390fd5b565b6000620014b16200157e565b905060008160000160009054906101000a900473ffffffffffffffffffffffffffffffffffffffff169050828260000160006101000a81548173ffffffffffffffffffffffffffffffffffffffff021916908373ffffffffffffffffffffffffffffffffffffffff1602179055508273ffffffffffffffffffffffffffffffffffffffff168173ffffffffffffffffffffffffffffffffffffffff167f8be0079c531659141344cd1fd0a4f28419497f9722a3daafe3b4186f6b6457e060405160405180910390a3505050565b60007f9016d09d72d40fdae2fd8ceac6b6234c7706214fd39c1cd1e609a0528c199300905090565b60007ff0c57e16840df040f15088dc2f81fe391c3923bec73e23a9662efc9c229c6a0060001b905090565b620015db6200177d565b62001612576040517fd7e6bcf800000000000000000000000000000000000000000000000000000000815260040160405180910390fd5b565b6200161e620015d1565b600073ffffffffffffffffffffffffffffffffffffffff168173ffffffffffffffffffffffffffffffffffffffff1603620016935760006040517f1e4fbdf70000000000000000000000000000000000000000000000000000000081526004016200168a919062001af5565b60405180910390fd5b6200169e81620014a5565b50565b6000620016d17f360894a13ba1a3210667c828492db98dca3e2076cc3735a920a3ca505d382bbc60001b6200179f565b60000160009054906101000a900473ffffffffffffffffffffffffffffffffffffffff16905090565b6200170582620017a9565b8173ffffffffffffffffffffffffffffffffffffffff167fbc7cd75a20ee27fd9adebab32041f755214dbc6bffa90cc0225b39da2e5c2d3b60405160405180910390a260008151111562001766576200175f82826200187b565b5062001771565b6200177062001905565b5b5050565b600033905090565b60006200178962001132565b60000160089054906101000a900460ff16905090565b6000819050919050565b60008173ffffffffffffffffffffffffffffffffffffffff163b036200180857806040517f4c9c8ce3000000000000000000000000000000000000000000000000000000008152600401620017ff919062001af5565b60405180910390fd5b80620018377f360894a13ba1a3210667c828492db98dca3e2076cc3735a920a3ca505d382bbc60001b6200179f565b60000160006101000a81548173ffffffffffffffffffffffffffffffffffffffff021916908373ffffffffffffffffffffffffffffffffffffffff16021790555050565b60606000808473ffffffffffffffffffffffffffffffffffffffff1684604051620018a7919062002481565b600060405180830381855af49150503d8060008114620018e4576040519150601f19603f3d011682016040523d82523d6000602084013e620018e9565b606091505b5091509150620018fb85838362001943565b9250505092915050565b600034111562001941576040517fb398979f00000000000000000000000000000000000000000000000000000000815260040160405180910390fd5b565b6060826200195c576200195682620019db565b620019d3565b6000825114801562001985575060008473ffffffffffffffffffffffffffffffffffffffff163b145b15620019ca57836040517f9996b315000000000000000000000000000000000000000000000000000000008152600401620019c1919062001af5565b60405180910390fd5b819050620019d4565b5b9392505050565b600081511115620019ef5780518082602001fd5b6040517fd6bda27500000000000000000000000000000000000000000000000000000000815260040160405180910390fd5b6106e5806200249b83390190565b6000604051905090565b600080fd5b600080fd5b6000819050919050565b62001a588162001a43565b811462001a6457600080fd5b50565b60008135905062001a788162001a4d565b92915050565b60006020828403121562001a975762001a9662001a39565b5b600062001aa78482850162001a67565b91505092915050565b600073ffffffffffffffffffffffffffffffffffffffff82169050919050565b600062001add8262001ab0565b9050919050565b62001aef8162001ad0565b82525050565b600060208201905062001b0c600083018462001ae4565b92915050565b62001b1d8162001ad0565b811462001b2957600080fd5b50565b60008135905062001b3d8162001b12565b92915050565b6000806040838503121562001b5d5762001b5c62001a39565b5b600062001b6d8582860162001b2c565b925050602062001b808582860162001b2c565b9150509250929050565b60006020828403121562001ba35762001ba262001a39565b5b600062001bb38482850162001b2c565b91505092915050565b60008115159050919050565b62001bd38162001bbc565b82525050565b600060208201905062001bf0600083018462001bc8565b92915050565b600080fd5b600080fd5b6000601f19601f8301169050919050565b7f4e487b7100000000000000000000000000000000000000000000000000000000600052604160045260246000fd5b62001c4b8262001c00565b810181811067ffffffffffffffff8211171562001c6d5762001c6c62001c11565b5b80604052505050565b600062001c8262001a2f565b905062001c90828262001c40565b919050565b600067ffffffffffffffff82111562001cb35762001cb262001c11565b5b62001cbe8262001c00565b9050602081019050919050565b82818337600083830152505050565b600062001cf162001ceb8462001c95565b62001c76565b90508281526020810184848401111562001d105762001d0f62001bfb565b5b62001d1d84828562001ccb565b509392505050565b600082601f83011262001d3d5762001d3c62001bf6565b5b813562001d4f84826020860162001cda565b91505092915050565b6000806040838503121562001d725762001d7162001a39565b5b600062001d828582860162001b2c565b925050602083013567ffffffffffffffff81111562001da65762001da562001a3e565b5b62001db48582860162001d25565b9150509250929050565b6000819050919050565b62001dd38162001dbe565b82525050565b600060208201905062001df0600083018462001dc8565b92915050565b600081519050919050565b600082825260208201905092915050565b60005b8381101562001e3257808201518184015260208101905062001e15565b60008484015250505050565b600062001e4b8262001df6565b62001e57818562001e01565b935062001e6981856020860162001e12565b62001e748162001c00565b840191505092915050565b6000602082019050818103600083015262001e9b818462001e3e565b905092915050565b62001eae8162001a43565b82525050565b600060208201905062001ecb600083018462001ea3565b92915050565b6000806040838503121562001eeb5762001eea62001a39565b5b600062001efb8582860162001b2c565b925050602062001f0e8582860162001a67565b9150509250929050565b62001f238162001bbc565b811462001f2f57600080fd5b50565b60008135905062001f438162001f18565b92915050565b6000806040838503121562001f635762001f6262001a39565b5b600062001f738582860162001b2c565b925050602062001f868582860162001f32565b9150509250929050565b6000819050919050565b600067ffffffffffffffff82169050919050565b6000819050919050565b600062001fd962001fd362001fcd8462001f90565b62001fae565b62001f9a565b9050919050565b62001feb8162001fb8565b82525050565b600060208201905062002008600083018462001fe0565b92915050565b7f4f7574206f6620626f756e647300000000000000000000000000000000000000600082015250565b600062002046600d8362001e01565b915062002053826200200e565b602082019050919050565b60006020820190508181036000830152620020798162002037565b9050919050565b7f4e487b7100000000000000000000000000000000000000000000000000000000600052603260045260246000fd5b7f4964656e746963616c2061646472657373657300000000000000000000000000600082015250565b6000620020e760138362001e01565b9150620020f482620020af565b602082019050919050565b600060208201905081810360008301526200211a81620020d8565b9050919050565b7f5a65726f20616464726573730000000000000000000000000000000000000000600082015250565b600062002159600c8362001e01565b9150620021668262002121565b602082019050919050565b600060208201905081810360008301526200218c816200214a565b9050919050565b7f5061697220616c72656164792065786973747300000000000000000000000000600082015250565b6000620021cb60138362001e01565b9150620021d88262002193565b602082019050919050565b60006020820190508181036000830152620021fe81620021bc565b9050919050565b60006060820190506200221c600083018662001ae4565b6200222b602083018562001ae4565b6200223a604083018462001ae4565b949350505050565b600081519050919050565b600082825260208201905092915050565b60006200226b8262002242565b6200227781856200224d565b93506200228981856020860162001e12565b620022948162001c00565b840191505092915050565b6000604082019050620022b6600083018562001ae4565b8181036020830152620022ca81846200225e565b90509392505050565b7f4e487b7100000000000000000000000000000000000000000000000000000000600052601160045260246000fd5b60006200230f8262001a43565b91506200231c8362001a43565b9250828203905081811115620023375762002336620022d3565b5b92915050565b600060408201905062002354600083018562001ae4565b62002363602083018462001ea3565b9392505050565b7f4e6f7420617574686f72697a6564000000000000000000000000000000000000600082015250565b6000620023a2600e8362001e01565b9150620023af826200236a565b602082019050919050565b60006020820190508181036000830152620023d58162002393565b9050919050565b620023e78162001dbe565b8114620023f357600080fd5b50565b6000815190506200240781620023dc565b92915050565b60006020828403121562002426576200242562001a39565b5b60006200243684828501620023f6565b91505092915050565b600081905092915050565b6000620024578262002242565b6200246381856200243f565b93506200247581856020860162001e12565b80840191505092915050565b60006200248f82846200244a565b91508190509291505056fe60806040526040516106e53803806106e583398181016040528101906100259190610512565b610035828261003c60201b60201c565b50506105f6565b61004b826100c160201b60201c565b8173ffffffffffffffffffffffffffffffffffffffff167fbc7cd75a20ee27fd9adebab32041f755214dbc6bffa90cc0225b39da2e5c2d3b60405160405180910390a26000815111156100ae576100a8828261019460201b60201c565b506100bd565b6100bc61021e60201b60201c565b5b5050565b60008173ffffffffffffffffffffffffffffffffffffffff163b0361011d57806040517f4c9c8ce3000000000000000000000000000000000000000000000000000000008152600401610114919061057d565b60405180910390fd5b806101507f360894a13ba1a3210667c828492db98dca3e2076cc3735a920a3ca505d382bbc60001b61025b60201b60201c565b60000160006101000a81548173ffffffffffffffffffffffffffffffffffffffff021916908373ffffffffffffffffffffffffffffffffffffffff16021790555050565b60606000808473ffffffffffffffffffffffffffffffffffffffff16846040516101be91906105df565b600060405180830381855af49150503d80600081146101f9576040519150601f19603f3d011682016040523d82523d6000602084013e6101fe565b606091505b509150915061021485838361026560201b60201c565b9250505092915050565b6000341115610259576040517fb398979f00000000000000000000000000000000000000000000000000000000815260040160405180910390fd5b565b6000819050919050565b6060826102805761027b826102fa60201b60201c565b6102f2565b600082511480156102a8575060008473ffffffffffffffffffffffffffffffffffffffff163b145b156102ea57836040517f9996b3150000000000000000000000000000000000000000000000000000000081526004016102e1919061057d565b60405180910390fd5b8190506102f3565b5b9392505050565b60008151111561030d5780518082602001fd5b6040517fd6bda27500000000000000000000000000000000000000000000000000000000815260040160405180910390fd5b6000604051905090565b600080fd5b600080fd5b600073ffffffffffffffffffffffffffffffffffffffff82169050919050565b600061037e82610353565b9050919050565b61038e81610373565b811461039957600080fd5b50565b6000815190506103ab81610385565b92915050565b600080fd5b600080fd5b6000601f19601f8301169050919050565b7f4e487b7100000000000000000000000000000000000000000000000000000000600052604160045260246000fd5b610404826103bb565b810181811067ffffffffffffffff82111715610423576104226103cc565b5b80604052505050565b600061043661033f565b905061044282826103fb565b919050565b600067ffffffffffffffff821115610462576104616103cc565b5b61046b826103bb565b9050602081019050919050565b60005b8381101561049657808201518184015260208101905061047b565b60008484015250505050565b60006104b56104b084610447565b61042c565b9050828152602081018484840111156104d1576104d06103b6565b5b6104dc848285610478565b509392505050565b600082601f8301126104f9576104f86103b1565b5b81516105098482602086016104a2565b91505092915050565b6000806040838503121561052957610528610349565b5b60006105378582860161039c565b925050602083015167ffffffffffffffff8111156105585761055761034e565b5b610564858286016104e4565b9150509250929050565b61057781610373565b82525050565b6000602082019050610592600083018461056e565b92915050565b600081519050919050565b600081905092915050565b60006105b982610598565b6105c381856105a3565b93506105d3818560208601610478565b80840191505092915050565b60006105eb82846105ae565b915081905092915050565b60e1806106046000396000f3fe6080604052600a600c565b005b60186014601a565b6027565b565b60006022604c565b905090565b3660008037600080366000845af43d6000803e80600081146047573d6000f35b3d6000fd5b600060787f360894a13ba1a3210667c828492db98dca3e2076cc3735a920a3ca505d382bbc60001b60a1565b60000160009054906101000a900473ffffffffffffffffffffffffffffffffffffffff16905090565b600081905091905056fea26469706673582212201ab661e8b869f1b3e460e633b994ca3bb464435cac812b5e212baa2233aff79064736f6c63430008160033a264697066735822122038fffb07f5cbaffc29a590c102f4e24410b3412b914e42f2419e0ea2d64fccc764736f6c63430008160033",
  "linkReferences": {},
  "deployedLinkReferences": {}
}