{
  "_format": "hh-sol-artifact-1",
  "contractName": "MiniDexPairUpgradeable",
  "sourceName": "contracts/MiniDexPairUpgradeable.sol",
  "abi": [
    {
      "inputs": [
        {
          "internalType": "address",
          "name": "target",
          "type": "address"
        }
      ],
      "name": "AddressEmptyCode",
      "type": "error"
    },
    {
      "inputs": [
        {
          "internalType": "address",
          "name": "implementation",
          "type": "address"
        }
      ],
      "name": "ERC1967InvalidImplementation",
      "type": "error"
    },
    {
      "inputs": [],
      "name": "ERC1967NonPayable",
      "type": "error"
    },
    {
      "inputs": [],
      "name": "FailedCall",
      "type": "error"
    },
    {
      "inputs": [],
      "name": "InvalidInitialization",
      "type": "error"
    },
    {
      "inputs": [],
      "name": "NotInitializing",
      "type": "error"
    },
    {
      "inputs": [
        {
          "internalType": "address",
          "name": "owner",
          "type": "address"
        }
      ],
      "name": "OwnableInvalidOwner",
      "type": "error"
    },
    {
      "inputs": [
        {
          "internalType": "address",
          "name": "account",
          "type": "address"
        }
      ],
      "name": "OwnableUnauthorizedAccount",
      "type": "error"
    },
    {
      "inputs": [],
      "name": "ReentrancyGuardReentrantCall",
      "type": "error"
    },
    {
      "inputs": [],
      "name": "UUPSUnauthorizedCallContext",
      "type": "error"
    },
    {
      "inputs": [
        {
          "internalType": "bytes32",
          "name": "slot",
          "type": "bytes32"
        }
      ],
      "name": "UUPSUnsupportedProxiableUUID",
      "type": "error"
    },
    {
      "anonymous": false,
      "inputs": [
        {
          "indexed": false,
          "internalType": "uint64",
          "name": "version",
          "type": "uint64"
        }
      ],
      "name": "Initialized",
      "type": "event"
    },
    {
      "anonymous": false,
      "inputs": [
        {
          "indexed": true,
          "internalType": "address",
          "name": "provider",
          "type": "address"
        },
        {
          "indexed": false,
          "internalType": "uint256",
          "name": "amountA",
          "type": "uint256"
        },
        {
          "indexed": false,
          "internalType": "uint256",
          "name": "amountB",
          "type": "uint256"
        },
        {
          "indexed": false,
          "internalType": "uint256",
          "name": "lpMinted",
          "type": "uint256"
        }
      ],
      "name": "LiquidityAdded",
      "type": "event"
    },
    {
      "anonymous": false,
      "inputs": [
        {
          "indexed": true,
          "internalType": "address",
          "name": "provider",
          "type": "address"
        },
        {
          "indexed": false,
          "internalType": "uint256",
          "name": "amountA",
          "type": "uint256"
        },
        {
          "indexed": false,
          "internalType": "uint256",
          "name": "amountB",
          "type": "uint256"
        },
        {
          "indexed": false,
          "internalType": "uint256",
          "name": "lpBurned",
          "type": "uint256"
        }
      ],
      "name": "LiquidityRemoved",
      "type": "event"
    },
    {
      "anonymous": false,
      "inputs": [
        {
          "indexed": true,
          "internalType": "address",
          "name": "previousOwner",
          "type": "address"
        },
        {
          "indexed": true,
          "internalType": "address",
          "name": "newOwner",
          "type": "address"
        }
      ],
      "name": "OwnershipTransferred",
      "type": "event"
    },
    {
      "anonymous": false,
      "inputs": [
        {
          "indexed": false,
          "internalType": "uint256",
          "name": "reserveA",
          "type": "uint256"
        },
        {
          "indexed": false,
          "internalType": "uint256",
          "name": "reserveB",
          "type": "uint256"
        }
      ],
      "name": "ReserveSynced",
      "type": "event"
    },
    {
      "anonymous": false,
      "inputs": [
        {
          "indexed": true,
          "internalType": "address",
          "name": "user",
          "type": "address"
        },
        {
          "indexed": false,
          "internalType": "uint256",
          "name": "rewardAmount",
          "type": "uint256"
        }
      ],
      "name": "RewardClaimed",
      "type": "event"
    },
    {
      "anonymous": false,
      "inputs": [
        {
          "indexed": true,
          "internalType": "address",
          "name": "user",
          "type": "address"
        },
        {
          "indexed": true,
          "internalType": "address",
          "name": "inputToken",
          "type": "address"
        },
        {
          "indexed": true,
          "internalType": "address",
          "name": "outputToken",
          "type": "address"
        },
        {
          "indexed": false,
          "internalType": "uint256",
          "name": "inputAmount",
          "type": "uint256"
        },
        {
          "indexed": false,
          "internalType": "uint256",
          "name": "outputAmount",
          "type": "uint256"
        }
      ],
      "name": "Swapped",
      "type": "event"
    },
    {
      "anonymous": false,
      "inputs": [
        {
          "indexed": true,
          "internalType": "address",
          "name": "implementation",
          "type": "address"
        }
      ],
      "name": "Upgraded",
      "type": "event"
    },
    {
      "inputs": [],
      "name": "FEE_RATE",
      "outputs": [
        {
          "internalType": "uint256",
          "name": "",
          "type": "uint256"
        }
      ],
      "stateMutability": "view",
      "type": "function"
    },
    {
      "inputs": [
        {
          "internalType": "address",
          "name": "",
          "type": "address"
        }
      ],
      "name": "LPbalances",
      "outputs": [
        {
          "internalType": "uint256",
          "name": "",
          "type": "uint256"
        }
      ],
      "stateMutability": "view",
      "type": "function"
    },
    {
      "inputs": [],
      "name": "UPGRADE_INTERFACE_VERSION",
      "outputs": [
        {
          "internalType": "string",
          "name": "",
          "type": "string"
        }
      ],
      "stateMutability": "view",
      "type": "function"
    },
    {
      "inputs": [
        {
          "internalType": "uint256",
          "name": "amountA",
          "type": "uint256"
        },
        {
          "internalType": "uint256",
          "name": "amountB",
          "type": "uint256"
        }
      ],
      "name": "addLiquidity",
      "outputs": [],
      "stateMutability": "nonpayable",
      "type": "function"
    },
    {
      "inputs": [
        {
          "internalType": "uint256",
          "name": "amountB",
          "type": "uint256"
        }
      ],
      "name": "claimAndReinvest",
      "outputs": [],
      "stateMutability": "nonpayable",
      "type": "function"
    },
    {
      "inputs": [],
      "name": "claimRewards",
      "outputs": [],
      "stateMutability": "nonpayable",
      "type": "function"
    },
    {
      "inputs": [
        {
          "internalType": "address",
          "name": "",
          "type": "address"
        }
      ],
      "name": "claimableRewards",
      "outputs": [
        {
          "internalType": "uint256",
          "name": "",
          "type": "uint256"
        }
      ],
      "stateMutability": "view",
      "type": "function"
    },
    {
      "inputs": [],
      "name": "feeRecipient",
      "outputs": [
        {
          "internalType": "address",
          "name": "",
          "type": "address"
        }
      ],
      "stateMutability": "view",
      "type": "function"
    },
    {
      "inputs": [],
      "name": "get24hVolume",
      "outputs": [
        {
          "internalType": "uint256",
          "name": "",
          "type": "uint256"
        }
      ],
      "stateMutability": "view",
      "type": "function"
    },
    {
      "inputs": [],
      "name": "getAPR",
      "outputs": [
        {
          "internalType": "uint256",
          "name": "",
          "type": "uint256"
        }
      ],
      "stateMutability": "view",
      "type": "function"
    },
    {
      "inputs": [
        {
          "internalType": "uint256",
          "name": "inputAmount",
          "type": "uint256"
        },
        {
          "internalType": "address",
          "name": "inputToken",
          "type": "address"
        }
      ],
      "name": "getAmountOut",
      "outputs": [
        {
          "internalType": "uint256",
          "name": "outputAmount",
          "type": "uint256"
        }
      ],
      "stateMutability": "view",
      "type": "function"
    },
    {
      "inputs": [
        {
          "internalType": "address",
          "name": "user",
          "type": "address"
        }
      ],
      "name": "getClaimableRewards",
      "outputs": [
        {
          "internalType": "uint256",
          "name": "",
          "type": "uint256"
        }
      ],
      "stateMutability": "view",
      "type": "function"
    },
    {
      "inputs": [
        {
          "internalType": "address",
          "name": "user",
          "type": "address"
        }
      ],
      "name": "getLPBalance",
      "outputs": [
        {
          "internalType": "uint256",
          "name": "",
          "type": "uint256"
        }
      ],
      "stateMutability": "view",
      "type": "function"
    },
    {
      "inputs": [
        {
          "internalType": "address",
          "name": "user",
          "type": "address"
        }
      ],
      "name": "getReputationScore",
      "outputs": [
        {
          "internalType": "uint256",
          "name": "",
          "type": "uint256"
        }
      ],
      "stateMutability": "view",
      "type": "function"
    },
    {
      "inputs": [],
      "name": "getReserves",
      "outputs": [
        {
          "internalType": "uint256",
          "name": "",
          "type": "uint256"
        },
        {
          "internalType": "uint256",
          "name": "",
          "type": "uint256"
        }
      ],
      "stateMutability": "view",
      "type": "function"
    },
    {
      "inputs": [],
      "name": "getTVL",
      "outputs": [
        {
          "internalType": "uint256",
          "name": "",
          "type": "uint256"
        }
      ],
      "stateMutability": "view",
      "type": "function"
    },
    {
      "inputs": [
        {
          "internalType": "address",
          "name": "_tokenA",
          "type": "address"
        },
        {
          "internalType": "address",
          "name": "_tokenB",
          "type": "address"
        },
        {
          "internalType": "address",
          "name": "_owner",
          "type": "address"
        }
      ],
      "name": "initialize",
      "outputs": [],
      "stateMutability": "nonpayable",
      "type": "function"
    },
    {
      "inputs": [],
      "name": "lastVolumeTimestamp",
      "outputs": [
        {
          "internalType": "uint256",
          "name": "",
          "type": "uint256"
        }
      ],
      "stateMutability": "view",
      "type": "function"
    },
    {
      "inputs": [],
      "name": "owner",
      "outputs": [
        {
          "internalType": "address",
          "name": "",
          "type": "address"
        }
      ],
      "stateMutability": "view",
      "type": "function"
    },
    {
      "inputs": [],
      "name": "proxiableUUID",
      "outputs": [
        {
          "internalType": "bytes32",
          "name": "",
          "type": "bytes32"
        }
      ],
      "stateMutability": "view",
      "type": "function"
    },
    {
      "inputs": [
        {
          "internalType": "uint256",
          "name": "lpAmount",
          "type": "uint256"
        }
      ],
      "name": "removeLiquidity",
      "outputs": [],
      "stateMutability": "nonpayable",
      "type": "function"
    },
    {
      "inputs": [],
      "name": "renounceOwnership",
      "outputs": [],
      "stateMutability": "nonpayable",
      "type": "function"
    },
    {
      "inputs": [],
      "name": "reserveA",
      "outputs": [
        {
          "internalType": "uint256",
          "name": "",
          "type": "uint256"
        }
      ],
      "stateMutability": "view",
      "type": "function"
    },
    {
      "inputs": [],
      "name": "reserveB",
      "outputs": [
        {
          "internalType": "uint256",
          "name": "",
          "type": "uint256"
        }
      ],
      "stateMutability": "view",
      "type": "function"
    },
    {
      "inputs": [
        {
          "internalType": "uint256",
          "name": "inputAmount",
          "type": "uint256"
        },
        {
          "internalType": "address",
          "name": "inputToken",
          "type": "address"
        }
      ],
      "name": "swap",
      "outputs": [],
      "stateMutability": "nonpayable",
      "type": "function"
    },
    {
      "inputs": [],
      "name": "tokenA",
      "outputs": [
        {
          "internalType": "address",
          "name": "",
          "type": "address"
        }
      ],
      "stateMutability": "view",
      "type": "function"
    },
    {
      "inputs": [],
      "name": "tokenB",
      "outputs": [
        {
          "internalType": "address",
          "name": "",
          "type": "address"
        }
      ],
      "stateMutability": "view",
      "type": "function"
    },
    {
      "inputs": [
        {
          "internalType": "address",
          "name": "",
          "type": "address"
        }
      ],
      "name": "totalInput",
      "outputs": [
        {
          "internalType": "uint256",
          "name": "",
          "type": "uint256"
        }
      ],
      "stateMutability": "view",
      "type": "function"
    },
    {
      "inputs": [],
      "name": "totalLPSupply",
      "outputs": [
        {
          "internalType": "uint256",
          "name": "",
          "type": "uint256"
        }
      ],
      "stateMutability": "view",
      "type": "function"
    },
    {
      "inputs": [
        {
          "internalType": "address",
          "name": "",
          "type": "address"
        }
      ],
      "name": "totalOutput",
      "outputs": [
        {
          "internalType": "uint256",
          "name": "",
          "type": "uint256"
        }
      ],
      "stateMutability": "view",
      "type": "function"
    },
    {
      "inputs": [],
      "name": "totalRewardPool",
      "outputs": [
        {
          "internalType": "uint256",
          "name": "",
          "type": "uint256"
        }
      ],
      "stateMutability": "view",
      "type": "function"
    },
    {
      "inputs": [
        {
          "internalType": "address",
          "name": "newOwner",
          "type": "address"
        }
      ],
      "name": "transferOwnership",
      "outputs": [],
      "stateMutability": "nonpayable",
      "type": "function"
    },
    {
      "inputs": [
        {
          "internalType": "address",
          "name": "newImplementation",
          "type": "address"
        },
        {
          "internalType": "bytes",
          "name": "data",
          "type": "bytes"
        }
      ],
      "name": "upgradeToAndCall",
      "outputs": [],
      "stateMutability": "payable",
      "type": "function"
    },
    {
      "inputs": [
        {
          "internalType": "address",
          "name": "",
          "type": "address"
        }
      ],
      "name": "userRewardDebt",
      "outputs": [
        {
          "internalType": "uint256",
          "name": "",
          "type": "uint256"
        }
      ],
      "stateMutability": "view",
      "type": "function"
    },
    {
      "inputs": [],
      "name": "volume24h",
      "outputs": [
        {
          "internalType": "uint256",
          "name": "",
          "type": "uint256"
        }
      ],
      "stateMutability": "view",
      "type": "function"
    }
  ],
  "bytecode": "0x60a06040523073ffffffffffffffffffffffffffffffffffffffff1660809073ffffffffffffffffffffffffffffffffffffffff1681525034801561004357600080fd5b50608051613db961006d6000396000818161280d015281816128620152612a1d0152613db96000f3fe6080604052600436106102045760003560e01c8063613e0f5911610118578063c0c53b8b116100a0578063d3986f081161006f578063d3986f0814610753578063dc01f60d1461077c578063dc5fa6c5146107b9578063f140a35a146107e4578063f2fde38b1461082157610204565b8063c0c53b8b14610697578063c89d5b8b146106c0578063d1a86711146106eb578063d2258beb1461071657610204565b806397b3fcaa116100e757806397b3fcaa146105b257806399065b8d146105dd5780639c8f9f231461061a5780639cd441da14610643578063ad3cb1cc1461066c57610204565b8063613e0f5914610508578063715018a61461053357806375a67d5c1461054a5780638da5cb5b1461058757610204565b80632a9efe1d1161019b578063469048401161016a578063469048401461042e5780634bf6f9e7146104595780634f1ef2861461049657806352d1902d146104b25780635f64b55b146104dd57610204565b80632a9efe1d146103865780632d11c58a146103af578063308e401e146103da578063372500ab1461041757610204565b8063140b9d84116101d7578063140b9d84146102c857806319e36f3b146102f357806320aa01b81461031e57806322b9a6401461034957610204565b80630902f1ac1461020957806309c85e24146102355780630d8b48ca146102605780630fc63d101461029d575b600080fd5b34801561021557600080fd5b5061021e61084a565b60405161022c929190613165565b60405180910390f35b34801561024157600080fd5b5061024a61085b565b604051610257919061318e565b60405180910390f35b34801561026c57600080fd5b506102876004803603810190610282919061321b565b610861565b604051610294919061318e565b60405180910390f35b3480156102a957600080fd5b506102b2610879565b6040516102bf9190613257565b60405180910390f35b3480156102d457600080fd5b506102dd61089d565b6040516102ea919061318e565b60405180910390f35b3480156102ff57600080fd5b506103086108a3565b604051610315919061318e565b60405180910390f35b34801561032a57600080fd5b506103336108a9565b604051610340919061318e565b60405180910390f35b34801561035557600080fd5b50610370600480360381019061036b919061321b565b6108af565b60405161037d919061318e565b60405180910390f35b34801561039257600080fd5b506103ad60048036038101906103a8919061329e565b6108c7565b005b3480156103bb57600080fd5b506103c4610c30565b6040516103d1919061318e565b60405180910390f35b3480156103e657600080fd5b5061040160048036038101906103fc919061321b565b610c35565b60405161040e919061318e565b60405180910390f35b34801561042357600080fd5b5061042c610d5a565b005b34801561043a57600080fd5b50610443610f2f565b6040516104509190613257565b60405180910390f35b34801561046557600080fd5b50610480600480360381019061047b919061321b565b610f55565b60405161048d919061318e565b60405180910390f35b6104b060048036038101906104ab9190613411565b610f6d565b005b3480156104be57600080fd5b506104c7610f8c565b6040516104d49190613486565b60405180910390f35b3480156104e957600080fd5b506104f2610fbf565b6040516104ff9190613257565b60405180910390f35b34801561051457600080fd5b5061051d610fe5565b60405161052a919061318e565b60405180910390f35b34801561053f57600080fd5b50610548610fef565b005b34801561055657600080fd5b50610571600480360381019061056c919061321b565b611003565b60405161057e919061318e565b60405180910390f35b34801561059357600080fd5b5061059c6112f7565b6040516105a99190613257565b60405180910390f35b3480156105be57600080fd5b506105c761132f565b6040516105d4919061318e565b60405180910390f35b3480156105e957600080fd5b5061060460048036038101906105ff919061321b565b611346565b604051610611919061318e565b60405180910390f35b34801561062657600080fd5b50610641600480360381019061063c919061329e565b61135e565b005b34801561064f57600080fd5b5061066a600480360381019061066591906134a1565b611651565b005b34801561067857600080fd5b50610681611973565b60405161068e9190613560565b60405180910390f35b3480156106a357600080fd5b506106be60048036038101906106b99190613582565b6119ac565b005b3480156106cc57600080fd5b506106d5611d26565b6040516106e2919061318e565b60405180910390f35b3480156106f757600080fd5b50610700611db7565b60405161070d919061318e565b60405180910390f35b34801561072257600080fd5b5061073d6004803603810190610738919061321b565b611dbd565b60405161074a919061318e565b60405180910390f35b34801561075f57600080fd5b5061077a600480360381019061077591906135d5565b611e06565b005b34801561078857600080fd5b506107a3600480360381019061079e919061321b565b6122ab565b6040516107b0919061318e565b60405180910390f35b3480156107c557600080fd5b506107ce6122c3565b6040516107db919061318e565b60405180910390f35b3480156107f057600080fd5b5061080b600480360381019061080691906135d5565b6122c9565b604051610818919061318e565b60405180910390f35b34801561082d57600080fd5b506108486004803603810190610843919061321b565b6123a0565b005b600080600254600354915091509091565b600b5481565b600a6020528060005260406000206000915090505481565b60008054906101000a900473ffffffffffffffffffffffffffffffffffffffff1681565b600d5481565b60035481565b600c5481565b60096020528060005260406000206000915090505481565b6108cf612426565b6108d83361247d565b6000600860003373ffffffffffffffffffffffffffffffffffffffff1673ffffffffffffffffffffffffffffffffffffffff1681526020019081526020016000205490506000811161095f576040517f08c379a000000000000000000000000000000000000000000000000000000000815260040161095690613661565b60405180910390fd5b6000600860003373ffffffffffffffffffffffffffffffffffffffff1673ffffffffffffffffffffffffffffffffffffffff16815260200190815260200160002081905550600160009054906101000a900473ffffffffffffffffffffffffffffffffffffffff1673ffffffffffffffffffffffffffffffffffffffff166323b872dd3330856040518463ffffffff1660e01b8152600401610a0393929190613681565b6020604051808303816000875af1158015610a22573d6000803e3d6000fd5b505050506040513d601f19601f82011682018060405250810190610a4691906136f0565b506000806004541480610a5b57506000600254145b80610a6857506000600354145b15610a8857610a818383610a7c919061374c565b6125de565b9050610ac9565b610ac660025460045484610a9c919061374c565b610aa691906137bd565b60035460045486610ab7919061374c565b610ac191906137bd565b612658565b90505b60008111610b0c576040517f08c379a0000000000000000000000000000000000000000000000000000000008152600401610b039061383a565b60405180910390fd5b80600660003373ffffffffffffffffffffffffffffffffffffffff1673ffffffffffffffffffffffffffffffffffffffff1681526020019081526020016000206000828254610b5b919061385a565b925050819055508060046000828254610b74919061385a565b92505081905550610b83612671565b3373ffffffffffffffffffffffffffffffffffffffff167f106f923f993c2149d49b4255ff723acafa1f2d94393f561d3eda32ae348f724183604051610bc9919061318e565b60405180910390a23373ffffffffffffffffffffffffffffffffffffffff167f64b83944e79c3ce8d4c297411de637c3e102d064677aac0c163976ebdcd6f50e838584604051610c1b9392919061388e565b60405180910390a25050610c2d6127f2565b50565b600381565b60008060045403610c495760009050610d55565b6000600454600b54600660008673ffffffffffffffffffffffffffffffffffffffff1673ffffffffffffffffffffffffffffffffffffffff16815260200190815260200160002054610c9b919061374c565b610ca591906137bd565b90506000600760008573ffffffffffffffffffffffffffffffffffffffff1673ffffffffffffffffffffffffffffffffffffffff168152602001908152602001600020549050808211610cf9576000610d06565b8082610d0591906138c5565b5b600860008673ffffffffffffffffffffffffffffffffffffffff1673ffffffffffffffffffffffffffffffffffffffff16815260200190815260200160002054610d50919061385a565b925050505b919050565b610d62612426565b610d6b3361247d565b6000600860003373ffffffffffffffffffffffffffffffffffffffff1673ffffffffffffffffffffffffffffffffffffffff16815260200190815260200160002054905060008111610df2576040517f08c379a0000000000000000000000000000000000000000000000000000000008152600401610de990613661565b60405180910390fd5b6000600860003373ffffffffffffffffffffffffffffffffffffffff1673ffffffffffffffffffffffffffffffffffffffff1681526020019081526020016000208190555060008054906101000a900473ffffffffffffffffffffffffffffffffffffffff1673ffffffffffffffffffffffffffffffffffffffff1663a9059cbb33836040518363ffffffff1660e01b8152600401610e929291906138f9565b6020604051808303816000875af1158015610eb1573d6000803e3d6000fd5b505050506040513d601f19601f82011682018060405250810190610ed591906136f0565b503373ffffffffffffffffffffffffffffffffffffffff167f106f923f993c2149d49b4255ff723acafa1f2d94393f561d3eda32ae348f724182604051610f1c919061318e565b60405180910390a250610f2d6127f2565b565b600560009054906101000a900473ffffffffffffffffffffffffffffffffffffffff1681565b60076020528060005260406000206000915090505481565b610f7561280b565b610f7e826128f1565b610f8882826128fc565b5050565b6000610f96612a1b565b7f360894a13ba1a3210667c828492db98dca3e2076cc3735a920a3ca505d382bbc60001b905090565b600160009054906101000a900473ffffffffffffffffffffffffffffffffffffffff1681565b6000600d54905090565b610ff7612aa2565b6110016000612b29565b565b600080600660008473ffffffffffffffffffffffffffffffffffffffff1673ffffffffffffffffffffffffffffffffffffffff1681526020019081526020016000205490506000600860008573ffffffffffffffffffffffffffffffffffffffff1673ffffffffffffffffffffffffffffffffffffffff168152602001908152602001600020549050600080600454146110bd57600454670de0b6b3a7640000846110ae919061374c565b6110b891906137bd565b6110c0565b60005b90506000662386f26fc10000836110d791906137bd565b655af3107a4000836110e991906137bd565b6110f3919061385a565b9050600960008773ffffffffffffffffffffffffffffffffffffffff1673ffffffffffffffffffffffffffffffffffffffff16815260200190815260200160002054600a60008873ffffffffffffffffffffffffffffffffffffffff1673ffffffffffffffffffffffffffffffffffffffff16815260200190815260200160002054111561122957662386f26fc10000600960008873ffffffffffffffffffffffffffffffffffffffff1673ffffffffffffffffffffffffffffffffffffffff16815260200190815260200160002054600a60008973ffffffffffffffffffffffffffffffffffffffff1673ffffffffffffffffffffffffffffffffffffffff1681526020019081526020016000205461120d91906138c5565b61121791906137bd565b81611222919061385a565b90506112eb565b6000662386f26fc10000600a60008973ffffffffffffffffffffffffffffffffffffffff1673ffffffffffffffffffffffffffffffffffffffff16815260200190815260200160002054600960008a73ffffffffffffffffffffffffffffffffffffffff1673ffffffffffffffffffffffffffffffffffffffff168152602001908152602001600020546112bd91906138c5565b6112c791906137bd565b9050818111156112da57600091506112e9565b80826112e691906138c5565b91505b505b80945050505050919050565b600080611302612c00565b90508060000160009054906101000a900473ffffffffffffffffffffffffffffffffffffffff1691505090565b6000600354600254611341919061385a565b905090565b60066020528060005260406000206000915090505481565b611366612426565b6000811180156113b55750600660003373ffffffffffffffffffffffffffffffffffffffff1673ffffffffffffffffffffffffffffffffffffffff168152602001908152602001600020548111155b6113f4576040517f08c379a00000000000000000000000000000000000000000000000000000000081526004016113eb9061396e565b60405180910390fd5b6113fd3361247d565b600060045460025483611410919061374c565b61141a91906137bd565b905060006004546003548461142f919061374c565b61143991906137bd565b905082600660003373ffffffffffffffffffffffffffffffffffffffff1673ffffffffffffffffffffffffffffffffffffffff168152602001908152602001600020600082825461148a91906138c5565b9250508190555082600460008282546114a391906138c5565b9250508190555060008054906101000a900473ffffffffffffffffffffffffffffffffffffffff1673ffffffffffffffffffffffffffffffffffffffff1663a9059cbb33846040518363ffffffff1660e01b81526004016115059291906138f9565b6020604051808303816000875af1158015611524573d6000803e3d6000fd5b505050506040513d601f19601f8201168201806040525081019061154891906136f0565b50600160009054906101000a900473ffffffffffffffffffffffffffffffffffffffff1673ffffffffffffffffffffffffffffffffffffffff1663a9059cbb33836040518363ffffffff1660e01b81526004016115a69291906138f9565b6020604051808303816000875af11580156115c5573d6000803e3d6000fd5b505050506040513d601f19601f820116820180604052508101906115e991906136f0565b506115f2612671565b3373ffffffffffffffffffffffffffffffffffffffff167f1dc8bb69df2b8e91fbdcbfcf93d951b3f0000f085a95fe3f7946d6161439245d83838660405161163c9392919061388e565b60405180910390a2505061164e6127f2565b50565b611659612426565b6000821180156116695750600081115b6116a8576040517f08c379a000000000000000000000000000000000000000000000000000000000815260040161169f906139da565b60405180910390fd5b60008054906101000a900473ffffffffffffffffffffffffffffffffffffffff1673ffffffffffffffffffffffffffffffffffffffff166323b872dd3330856040518463ffffffff1660e01b815260040161170593929190613681565b6020604051808303816000875af1158015611724573d6000803e3d6000fd5b505050506040513d601f19601f8201168201806040525081019061174891906136f0565b50600160009054906101000a900473ffffffffffffffffffffffffffffffffffffffff1673ffffffffffffffffffffffffffffffffffffffff166323b872dd3330846040518463ffffffff1660e01b81526004016117a893929190613681565b6020604051808303816000875af11580156117c7573d6000803e3d6000fd5b505050506040513d601f19601f820116820180604052508101906117eb91906136f0565b506000806004541461183a576118356002546004548561180b919061374c565b61181591906137bd565b60035460045485611826919061374c565b61183091906137bd565b612658565b61184f565b61184e8284611849919061374c565b6125de565b5b905060008111611894576040517f08c379a000000000000000000000000000000000000000000000000000000000815260040161188b9061383a565b60405180910390fd5b61189d3361247d565b80600660003373ffffffffffffffffffffffffffffffffffffffff1673ffffffffffffffffffffffffffffffffffffffff16815260200190815260200160002060008282546118ec919061385a565b925050819055508060046000828254611905919061385a565b92505081905550611914612671565b3373ffffffffffffffffffffffffffffffffffffffff167f64b83944e79c3ce8d4c297411de637c3e102d064677aac0c163976ebdcd6f50e84848460405161195e9392919061388e565b60405180910390a25061196f6127f2565b5050565b6040518060400160405280600581526020017f352e302e3000000000000000000000000000000000000000000000000000000081525081565b60006119b6612c28565b905060008160000160089054906101000a900460ff1615905060008260000160009054906101000a900467ffffffffffffffff1690506000808267ffffffffffffffff16148015611a045750825b9050600060018367ffffffffffffffff16148015611a39575060003073ffffffffffffffffffffffffffffffffffffffff163b145b905081158015611a47575080155b15611a7e576040517ff92ee8a900000000000000000000000000000000000000000000000000000000815260040160405180910390fd5b60018560000160006101000a81548167ffffffffffffffff021916908367ffffffffffffffff1602179055508315611ace5760018560000160086101000a81548160ff0219169083151502179055505b8673ffffffffffffffffffffffffffffffffffffffff168873ffffffffffffffffffffffffffffffffffffffff1603611b3c576040517f08c379a0000000000000000000000000000000000000000000000000000000008152600401611b3390613a46565b60405180910390fd5b600073ffffffffffffffffffffffffffffffffffffffff168873ffffffffffffffffffffffffffffffffffffffff1614158015611ba65750600073ffffffffffffffffffffffffffffffffffffffff168773ffffffffffffffffffffffffffffffffffffffff1614155b611be5576040517f08c379a0000000000000000000000000000000000000000000000000000000008152600401611bdc90613ab2565b60405180910390fd5b611bee86612c3c565b611bf6612c50565b611bfe612c62565b876000806101000a81548173ffffffffffffffffffffffffffffffffffffffff021916908373ffffffffffffffffffffffffffffffffffffffff16021790555086600160006101000a81548173ffffffffffffffffffffffffffffffffffffffff021916908373ffffffffffffffffffffffffffffffffffffffff16021790555085600560006101000a81548173ffffffffffffffffffffffffffffffffffffffff021916908373ffffffffffffffffffffffffffffffffffffffff1602179055508315611d1c5760008560000160086101000a81548160ff0219169083151502179055507fc7f505b2f371ae2175ee4913f4499e1f2633a7b5936321eed1cdaeb6115181d26001604051611d139190613b2b565b60405180910390a15b5050505050505050565b6000806004541480611d4757506000600354600254611d45919061385a565b145b15611d555760009050611db4565b600061016d6103e86003600d54611d6c919061374c565b611d7691906137bd565b611d80919061374c565b90506000600354600254611d94919061385a565b90508061271083611da5919061374c565b611daf91906137bd565b925050505b90565b60045481565b6000600660008373ffffffffffffffffffffffffffffffffffffffff1673ffffffffffffffffffffffffffffffffffffffff168152602001908152602001600020549050919050565b611e0e612426565b60008211611e51576040517f08c379a0000000000000000000000000000000000000000000000000000000008152600401611e4890613b92565b60405180910390fd5b60008054906101000a900473ffffffffffffffffffffffffffffffffffffffff1673ffffffffffffffffffffffffffffffffffffffff168173ffffffffffffffffffffffffffffffffffffffff161480611ef85750600160009054906101000a900473ffffffffffffffffffffffffffffffffffffffff1673ffffffffffffffffffffffffffffffffffffffff168173ffffffffffffffffffffffffffffffffffffffff16145b611f37576040517f08c379a0000000000000000000000000000000000000000000000000000000008152600401611f2e90613bfe565b60405180910390fd5b60008060009054906101000a900473ffffffffffffffffffffffffffffffffffffffff1673ffffffffffffffffffffffffffffffffffffffff168273ffffffffffffffffffffffffffffffffffffffff1614611fb35760008054906101000a900473ffffffffffffffffffffffffffffffffffffffff16611fd7565b600160009054906101000a900473ffffffffffffffffffffffffffffffffffffffff165b90506000611fe584846122c9565b90506000811161202a576040517f08c379a000000000000000000000000000000000000000000000000000000000815260040161202190613c6a565b60405180910390fd5b8273ffffffffffffffffffffffffffffffffffffffff166323b872dd3330876040518463ffffffff1660e01b815260040161206793929190613681565b6020604051808303816000875af1158015612086573d6000803e3d6000fd5b505050506040513d601f19601f820116820180604052508101906120aa91906136f0565b5060006103e86003866120bd919061374c565b6120c791906137bd565b905080600b60008282546120db919061385a565b925050819055508273ffffffffffffffffffffffffffffffffffffffff1663a9059cbb33846040518363ffffffff1660e01b815260040161211d9291906138f9565b6020604051808303816000875af115801561213c573d6000803e3d6000fd5b505050506040513d601f19601f8201168201806040525081019061216091906136f0565b5084600960003373ffffffffffffffffffffffffffffffffffffffff1673ffffffffffffffffffffffffffffffffffffffff16815260200190815260200160002060008282546121b0919061385a565b9250508190555081600a60003373ffffffffffffffffffffffffffffffffffffffff1673ffffffffffffffffffffffffffffffffffffffff1681526020019081526020016000206000828254612206919061385a565b92505081905550612215612671565b61221e85612c6c565b8273ffffffffffffffffffffffffffffffffffffffff168473ffffffffffffffffffffffffffffffffffffffff163373ffffffffffffffffffffffffffffffffffffffff167f6782190c91d4a7e8ad2a867deed6ec0a970cab8ff137ae2bd4abd92b3810f4d38886604051612294929190613165565b60405180910390a45050506122a76127f2565b5050565b60086020528060005260406000206000915090505481565b60025481565b60008060008054906101000a900473ffffffffffffffffffffffffffffffffffffffff1673ffffffffffffffffffffffffffffffffffffffff168373ffffffffffffffffffffffffffffffffffffffff161490506000808261233057600354600254612337565b6002546003545b91509150600060036103e861234c91906138c5565b87612357919061374c565b905060008282612367919061374c565b90506000826103e88661237a919061374c565b612384919061385a565b9050808261239291906137bd565b965050505050505092915050565b6123a8612aa2565b600073ffffffffffffffffffffffffffffffffffffffff168173ffffffffffffffffffffffffffffffffffffffff160361241a5760006040517f1e4fbdf70000000000000000000000000000000000000000000000000000000081526004016124119190613257565b60405180910390fd5b61242381612b29565b50565b6000612430612cb4565b90506002816000015403612470576040517f3ee5aeb500000000000000000000000000000000000000000000000000000000815260040160405180910390fd5b6002816000018190555050565b600060045403156125db576000600454600b54600660008573ffffffffffffffffffffffffffffffffffffffff1673ffffffffffffffffffffffffffffffffffffffff168152602001908152602001600020546124da919061374c565b6124e491906137bd565b90506000600760008473ffffffffffffffffffffffffffffffffffffffff1673ffffffffffffffffffffffffffffffffffffffff1681526020019081526020016000205490508082111561259457808261253e91906138c5565b600860008573ffffffffffffffffffffffffffffffffffffffff1673ffffffffffffffffffffffffffffffffffffffff168152602001908152602001600020600082825461258c919061385a565b925050819055505b81600760008573ffffffffffffffffffffffffffffffffffffffff1673ffffffffffffffffffffffffffffffffffffffff1681526020019081526020016000208190555050505b50565b6000600382111561264557819050600060016002846125fd91906137bd565b612607919061385a565b90505b8181101561263f57809150600281828561262491906137bd565b61262e919061385a565b61263891906137bd565b905061260a565b50612653565b6000821461265257600190505b5b919050565b60008183106126675781612669565b825b905092915050565b60008054906101000a900473ffffffffffffffffffffffffffffffffffffffff1673ffffffffffffffffffffffffffffffffffffffff166370a08231306040518263ffffffff1660e01b81526004016126ca9190613257565b602060405180830381865afa1580156126e7573d6000803e3d6000fd5b505050506040513d601f19601f8201168201806040525081019061270b9190613c9f565b600281905550600160009054906101000a900473ffffffffffffffffffffffffffffffffffffffff1673ffffffffffffffffffffffffffffffffffffffff166370a08231306040518263ffffffff1660e01b815260040161276c9190613257565b602060405180830381865afa158015612789573d6000803e3d6000fd5b505050506040513d601f19601f820116820180604052508101906127ad9190613c9f565b6003819055507fd6e74d43cd1c8c6b2d29be11f4977cc5e9c713288fddb50f44d82fd5e34b91196002546003546040516127e8929190613165565b60405180910390a1565b60006127fc612cb4565b90506001816000018190555050565b7f000000000000000000000000000000000000000000000000000000000000000073ffffffffffffffffffffffffffffffffffffffff163073ffffffffffffffffffffffffffffffffffffffff1614806128b857507f000000000000000000000000000000000000000000000000000000000000000073ffffffffffffffffffffffffffffffffffffffff1661289f612cdc565b73ffffffffffffffffffffffffffffffffffffffff1614155b156128ef576040517fe07c8dba00000000000000000000000000000000000000000000000000000000815260040160405180910390fd5b565b6128f9612aa2565b50565b8173ffffffffffffffffffffffffffffffffffffffff166352d1902d6040518163ffffffff1660e01b8152600401602060405180830381865afa92505050801561296457506040513d601f19601f820116820180604052508101906129619190613cf8565b60015b6129a557816040517f4c9c8ce300000000000000000000000000000000000000000000000000000000815260040161299c9190613257565b60405180910390fd5b7f360894a13ba1a3210667c828492db98dca3e2076cc3735a920a3ca505d382bbc60001b8114612a0c57806040517faa1d49a4000000000000000000000000000000000000000000000000000000008152600401612a039190613486565b60405180910390fd5b612a168383612d33565b505050565b7f000000000000000000000000000000000000000000000000000000000000000073ffffffffffffffffffffffffffffffffffffffff163073ffffffffffffffffffffffffffffffffffffffff1614612aa0576040517fe07c8dba00000000000000000000000000000000000000000000000000000000815260040160405180910390fd5b565b612aaa612da6565b73ffffffffffffffffffffffffffffffffffffffff16612ac86112f7565b73ffffffffffffffffffffffffffffffffffffffff1614612b2757612aeb612da6565b6040517f118cdaa7000000000000000000000000000000000000000000000000000000008152600401612b1e9190613257565b60405180910390fd5b565b6000612b33612c00565b905060008160000160009054906101000a900473ffffffffffffffffffffffffffffffffffffffff169050828260000160006101000a81548173ffffffffffffffffffffffffffffffffffffffff021916908373ffffffffffffffffffffffffffffffffffffffff1602179055508273ffffffffffffffffffffffffffffffffffffffff168173ffffffffffffffffffffffffffffffffffffffff167f8be0079c531659141344cd1fd0a4f28419497f9722a3daafe3b4186f6b6457e060405160405180910390a3505050565b60007f9016d09d72d40fdae2fd8ceac6b6234c7706214fd39c1cd1e609a0528c199300905090565b600080612c33612dae565b90508091505090565b612c44612dd9565b612c4d81612e19565b50565b612c58612dd9565b612c60612e9f565b565b612c6a612dd9565b565b62015180600c5442612c7e91906138c5565b1115612c975780600d8190555042600c81905550612cb1565b80600d6000828254612ca9919061385a565b925050819055505b50565b60007f9b779b17422d0df92223018b32b4d1fa46e071723d6817e2486d003becc55f00905090565b6000612d0a7f360894a13ba1a3210667c828492db98dca3e2076cc3735a920a3ca505d382bbc60001b612ec0565b60000160009054906101000a900473ffffffffffffffffffffffffffffffffffffffff16905090565b612d3c82612eca565b8173ffffffffffffffffffffffffffffffffffffffff167fbc7cd75a20ee27fd9adebab32041f755214dbc6bffa90cc0225b39da2e5c2d3b60405160405180910390a2600081511115612d9957612d938282612f97565b50612da2565b612da161301b565b5b5050565b600033905090565b60007ff0c57e16840df040f15088dc2f81fe391c3923bec73e23a9662efc9c229c6a0060001b905090565b612de1613058565b612e17576040517fd7e6bcf800000000000000000000000000000000000000000000000000000000815260040160405180910390fd5b565b612e21612dd9565b600073ffffffffffffffffffffffffffffffffffffffff168173ffffffffffffffffffffffffffffffffffffffff1603612e935760006040517f1e4fbdf7000000000000000000000000000000000000000000000000000000008152600401612e8a9190613257565b60405180910390fd5b612e9c81612b29565b50565b612ea7612dd9565b6000612eb1612cb4565b90506001816000018190555050565b6000819050919050565b60008173ffffffffffffffffffffffffffffffffffffffff163b03612f2657806040517f4c9c8ce3000000000000000000000000000000000000000000000000000000008152600401612f1d9190613257565b60405180910390fd5b80612f537f360894a13ba1a3210667c828492db98dca3e2076cc3735a920a3ca505d382bbc60001b612ec0565b60000160006101000a81548173ffffffffffffffffffffffffffffffffffffffff021916908373ffffffffffffffffffffffffffffffffffffffff16021790555050565b60606000808473ffffffffffffffffffffffffffffffffffffffff1684604051612fc19190613d6c565b600060405180830381855af49150503d8060008114612ffc576040519150601f19603f3d011682016040523d82523d6000602084013e613001565b606091505b5091509150613011858383613078565b9250505092915050565b6000341115613056576040517fb398979f00000000000000000000000000000000000000000000000000000000815260040160405180910390fd5b565b6000613062612c28565b60000160089054906101000a900460ff16905090565b60608261308d5761308882613107565b6130ff565b600082511480156130b5575060008473ffffffffffffffffffffffffffffffffffffffff163b145b156130f757836040517f9996b3150000000000000000000000000000000000000000000000000000000081526004016130ee9190613257565b60405180910390fd5b819050613100565b5b9392505050565b60008151111561311a5780518082602001fd5b6040517fd6bda27500000000000000000000000000000000000000000000000000000000815260040160405180910390fd5b6000819050919050565b61315f8161314c565b82525050565b600060408201905061317a6000830185613156565b6131876020830184613156565b9392505050565b60006020820190506131a36000830184613156565b92915050565b6000604051905090565b600080fd5b600080fd5b600073ffffffffffffffffffffffffffffffffffffffff82169050919050565b60006131e8826131bd565b9050919050565b6131f8816131dd565b811461320357600080fd5b50565b600081359050613215816131ef565b92915050565b600060208284031215613231576132306131b3565b5b600061323f84828501613206565b91505092915050565b613251816131dd565b82525050565b600060208201905061326c6000830184613248565b92915050565b61327b8161314c565b811461328657600080fd5b50565b60008135905061329881613272565b92915050565b6000602082840312156132b4576132b36131b3565b5b60006132c284828501613289565b91505092915050565b600080fd5b600080fd5b6000601f19601f8301169050919050565b7f4e487b7100000000000000000000000000000000000000000000000000000000600052604160045260246000fd5b61331e826132d5565b810181811067ffffffffffffffff8211171561333d5761333c6132e6565b5b80604052505050565b60006133506131a9565b905061335c8282613315565b919050565b600067ffffffffffffffff82111561337c5761337b6132e6565b5b613385826132d5565b9050602081019050919050565b82818337600083830152505050565b60006133b46133af84613361565b613346565b9050828152602081018484840111156133d0576133cf6132d0565b5b6133db848285613392565b509392505050565b600082601f8301126133f8576133f76132cb565b5b81356134088482602086016133a1565b91505092915050565b60008060408385031215613428576134276131b3565b5b600061343685828601613206565b925050602083013567ffffffffffffffff811115613457576134566131b8565b5b613463858286016133e3565b9150509250929050565b6000819050919050565b6134808161346d565b82525050565b600060208201905061349b6000830184613477565b92915050565b600080604083850312156134b8576134b76131b3565b5b60006134c685828601613289565b92505060206134d785828601613289565b9150509250929050565b600081519050919050565b600082825260208201905092915050565b60005b8381101561351b578082015181840152602081019050613500565b60008484015250505050565b6000613532826134e1565b61353c81856134ec565b935061354c8185602086016134fd565b613555816132d5565b840191505092915050565b6000602082019050818103600083015261357a8184613527565b905092915050565b60008060006060848603121561359b5761359a6131b3565b5b60006135a986828701613206565b93505060206135ba86828701613206565b92505060406135cb86828701613206565b9150509250925092565b600080604083850312156135ec576135eb6131b3565b5b60006135fa85828601613289565b925050602061360b85828601613206565b9150509250929050565b7f4e6f207265776172647300000000000000000000000000000000000000000000600082015250565b600061364b600a836134ec565b915061365682613615565b602082019050919050565b6000602082019050818103600083015261367a8161363e565b9050919050565b60006060820190506136966000830186613248565b6136a36020830185613248565b6136b06040830184613156565b949350505050565b60008115159050919050565b6136cd816136b8565b81146136d857600080fd5b50565b6000815190506136ea816136c4565b92915050565b600060208284031215613706576137056131b3565b5b6000613714848285016136db565b91505092915050565b7f4e487b7100000000000000000000000000000000000000000000000000000000600052601160045260246000fd5b60006137578261314c565b91506137628361314c565b92508282026137708161314c565b915082820484148315176137875761378661371d565b5b5092915050565b7f4e487b7100000000000000000000000000000000000000000000000000000000600052601260045260246000fd5b60006137c88261314c565b91506137d38361314c565b9250826137e3576137e261378e565b5b828204905092915050565b7f5a65726f204c50206d696e746564000000000000000000000000000000000000600082015250565b6000613824600e836134ec565b915061382f826137ee565b602082019050919050565b6000602082019050818103600083015261385381613817565b9050919050565b60006138658261314c565b91506138708361314c565b92508282019050808211156138885761388761371d565b5b92915050565b60006060820190506138a36000830186613156565b6138b06020830185613156565b6138bd6040830184613156565b949350505050565b60006138d08261314c565b91506138db8361314c565b92508282039050818111156138f3576138f261371d565b5b92915050565b600060408201905061390e6000830185613248565b61391b6020830184613156565b9392505050565b7f496e76616c6964204c5020616d6f756e74000000000000000000000000000000600082015250565b60006139586011836134ec565b915061396382613922565b602082019050919050565b600060208201905081810360008301526139878161394b565b9050919050565b7f496e76616c696420696e70757400000000000000000000000000000000000000600082015250565b60006139c4600d836134ec565b91506139cf8261398e565b602082019050919050565b600060208201905081810360008301526139f3816139b7565b9050919050565b7f4964656e746963616c2061646472657373657300000000000000000000000000600082015250565b6000613a306013836134ec565b9150613a3b826139fa565b602082019050919050565b60006020820190508181036000830152613a5f81613a23565b9050919050565b7f5a65726f20616464726573730000000000000000000000000000000000000000600082015250565b6000613a9c600c836134ec565b9150613aa782613a66565b602082019050919050565b60006020820190508181036000830152613acb81613a8f565b9050919050565b6000819050919050565b600067ffffffffffffffff82169050919050565b6000819050919050565b6000613b15613b10613b0b84613ad2565b613af0565b613adc565b9050919050565b613b2581613afa565b82525050565b6000602082019050613b406000830184613b1c565b92915050565b7f5a65726f20696e70757400000000000000000000000000000000000000000000600082015250565b6000613b7c600a836134ec565b9150613b8782613b46565b602082019050919050565b60006020820190508181036000830152613bab81613b6f565b9050919050565b7f496e76616c696420696e70757420746f6b656e00000000000000000000000000600082015250565b6000613be86013836134ec565b9150613bf382613bb2565b602082019050919050565b60006020820190508181036000830152613c1781613bdb565b9050919050565b7f5a65726f206f7574707574000000000000000000000000000000000000000000600082015250565b6000613c54600b836134ec565b9150613c5f82613c1e565b602082019050919050565b60006020820190508181036000830152613c8381613c47565b9050919050565b600081519050613c9981613272565b92915050565b600060208284031215613cb557613cb46131b3565b5b6000613cc384828501613c8a565b91505092915050565b613cd58161346d565b8114613ce057600080fd5b50565b600081519050613cf281613ccc565b92915050565b600060208284031215613d0e57613d0d6131b3565b5b6000613d1c84828501613ce3565b91505092915050565b600081519050919050565b600081905092915050565b6000613d4682613d25565b613d508185613d30565b9350613d608185602086016134fd565b80840191505092915050565b6000613d788284613d3b565b91508190509291505056fea2646970667358221220d177b13aaadc8779b92eb45bc43f4e279f8b19e2c5d7a5e599f02f864e65786f64736f6c63430008160033",
  "linkReferences": {},
  "deployedLinkReferences": {}
}